:100E7800013500012E00022F0000C10002430005C9
:100E8800023F0000042300000000022A00000221A3
:050E980000000145000F
:100DFA00B200A200928275B30975B101D2837F4015
:060E0A007E9C7D007C00CF
:100E10008F538E528D518C50785074FF1204C8EC51
:060E20004D4E4F70F3225D
:10081400E4F559F558F557F556F55DF55CF55BF5D6
:100824005AF561F560F55FF55EFFFEFDFC75E64A7D
:10083400C2DF75D12230DFFDC2DFAFD97554008F1E
:1008440055AFDA7552008F53AFDB7550008F51E40A
:10085400F5D1AE50AF51FCFDFBFA7901F812044911
:10086400A804A905AA06AB07E553FEE4FCFD2BFB8F
:10087400EA3EFAED39F9EC38F8EB2555FFEA355440
:10088400FEED39FDEC38FCE412033DE4FBFA79207B
:10089400784012011EE4FBFA7980784B1202278F0C
:1008A400598E588D578C56AB59AA58A957A856E457
:1008B400FFFE7D207C40120029C004C005C006C094
:1008C400077F007EA07D8C7C46AB59AA58A957A807
:1008D4005612011ED003D002D001D000120227E428
:1008E400FBFA797A78C412002D8F5D8E5C8D5B8C57
:1008F4005A7F247E977D7F7C3FAB5DAA5CA95BA871
:100904005A12011E7B9A7A99794978C012002D8F68
:10091400618E608D5F8C5E1207137B147AAE79D57D
:1009240078C112011E7B9A7AF97987784312002DD7
:100934008F3E8E3D8D3C8C3B8F268E258D248C23C3
:010944002290
:080BB8007F007E007DA07C415E
:100BC0008F538E528D518C50853E34853D33853CFC
:100BD00032853B31AB34AA33A932A8311202C4604A
:100BE0000A40087541007542FF8027E4FFFE7D80C2
:100BF0007C3FAB34AA33A932A83112002DAB53AAE3
:100C000052A951A8501202C46002500B75410075E0
:100C1000427F8542B28008E4F541F5428542B2AE9A
:040C200041AF42227C
:100E2600C2ACC299C2987599723099FDC2997599EA
:100E3600723099FDC2997599723099FDC29975996A
:090E4600723099FDC299D2AC2270
:100C8300E4FFFE7DC87C42AB3EAA3DA93CA83B12D3
:100C9300011E12037BAD07AC06ECFB7A00C3ED9497
:100CA30000FFEC9EFEC2ACC299C29875996D309953
:100CB300FDC2998F993099FDC2998B993099FDC2E4
:0B0CC300997599703099FDC299D2AC70
:010CCE002203
:100E4F00C2ACC299C29875997A3099FDC2997599B9
:100E5F007A3099FDC29975997A3099FDC299759931
:090E6F007A3099FDC299D2AC223F
:100CCF00E4FFFE7DC87C42AB3EAA3DA93CA83B1287
:100CDF00011E12037BAD07AC06ECFB7A00C3ED944B
:100CEF0000FFEC9EFEC2ACC299C29875996630990E
:100CFF00FDC2998F993099FDC2998B993099FDC298
:0B0D0F00997599663099FDC299D2AC2D
:010D1A0022B6
:100D1B00E4FFFE7DC87C42AB3EAA3DA93CA83B123A
:100D2B00011E12037BAD07AC06ECFB7A00C3ED94FE
:100D3B0000FFEC9EFEC2ACC299C2987599683099BF
:100D4B00FDC2998F993099FDC2998B993099FDC24B
:0B0D5B00997599683099FDC299D2ACDF
:010D6600226A
:100D6700E4FFFE7DC87C42AB3EAA3DA93CA83B12EE
:100D7700011E12037BAD07AC06ECFB7A00C3ED94B2
:100D870000FFEC9EFEC2ACC299C29875996B309970
:100D9700FDC2998F993099FDC2998B993099FDC2FF
:0B0DA7009975996B3099FDC299D2AC90
:010DB200221E
:100C240075AE5175B4FF75B2FF75B30F75B1017F21
:100C3400647E00120E0CC2AFE4F5D7F5AFC2DF75C7
:100C4400D40D75D12475D12575D227C2AE758B3DCF
:100C5400758D0AC28E758A3D758C0AC28CC2A9C272
:100C6400ABC2AC759850759E86759D12C2807F6428
:0F0C7400FEFDFC120E10D2BCD2AFD2ACC2832256
:080945008E468F478C488D4956
:10094D00E4F54CF54DF54A754B01C3E54B9547E57F
:10095D00466480F8E54A6480985079120814AC48D2
:10096D00AD49EC120342120BC0054DE54D70020569
:10097D004CB200A200928275B30975B101D2837F8A
:10098D00787E69120E0C120CCF8544B375B101E55A
:10099D004D6401454C7009120CCF7F807E38800765
:1009AD00120CCF7F107E9E7D017C00120E10C28333
:1009BD007F407E0D7D037C00120E107F407E0D7DED
:1009CD00037C00120E10120CCF054BE54B70020587
:1009DD004A020957120DFA8544B375B1017F807E25
:1009ED00387D017C00120E10120CCFE4F54CF54D44
:0209FD00C283B3
:0109FF0022D5
:080A00008E468F478C488D499A
:100A0800E4F54EF54FF54A754B01C3E54B9547E5BF
:100A1800466480F8E54A6480985067120814AC4828
:100A2800AD49EC120342120BC0054FE54F700205A9
:100A38004E120DFA120D678544B375B101E54F6486
:100A480001454E7009120D677F807E388007120DB0
:100A5800677F107E9E7D017C00120E10C283120DEE
:100A6800677F407E0D7D037C00120E107F407E0D57
:100A78007D037C00120E10054BE54B7002054A02FF
:100A88000A12120DFA8544B375B1017F807E387D54
:100A9800017C00120E10120D67E4F54EF54FC2836B
:010AA800222B
:040DB3008E468F4792
:100DB700C281E4F548F549C3E5499547E5466480AE
:100DC700F8E5486480985028120814120BB8E4FB21
:100DD700FA7FE87E03120E0C0BBB00010AEB64C816
:100DE7004A70EE120D1B0549E54970CB054880C7CF
:020DF700D281A7
:010DF90022D7
:1004E600D281C280120C24D288D2A87FE87E031261
:1004F6000E0C752F0075300175B30F75B101D283DF
:10050600C2827F207E4E120E0CC2837F207E4E1248
:100516000E0CE5306401452F7013D283D28275B379
:100526000F75B1017F207E4EFDFC120E10D2007FAA
:10053600407E0D7D037C00120E1075B30F75B10160
:10054600D283C2827F207E4E120E0CC2837F207E13
:100556004E120E0CE5306401452F7013D283C28211
:1005660075B30F75B1017F207E4EFDFC120E10D2C1
:10057600007F407E0D7D037C00120E107F0A8045B1
:100586007F647E00120E0CE53524FE603F14700376
:1005960002064714700302066C14700302068124D7
:1005A6000470DD7F647E00120E0C1208147F007E3C
:1005B600007DC87C42120BC0E52EB40106120C83E6
:1005C600E4F52E7F647E00120E0C80B47FA07E863A
:1005D6007D017C00120E10120CCF7D647C007F0A18
:1005E6007E00120945120D1B7FC07E277D097C0007
:1005F600120E107F787E00120DB3120D677FC07E3B
:10060600277D097C00120E10C2817FC07E277D09DE
:100616007C00120E107D147C007F1E7E00120A00E4
:10062600D2817F407E0D7D037C00120E107F407EBE
:100636000D7D037C00120E10120E4F753505020556
:10064600867F647E00120E0CD2A8C2837FE87E03EA
:10065600120E0C752F0075300275B30975B101D2F3
:1006660082D2830205867F647E00120E0CC281123E
:100676000814120BB8120C83020586D288D2A87F02
:10068600E87E03120E0C752F0075300175B30F75D9
:10069600B101D283D2827F407E0D7D037C00120E93
:1006A60010C2837F207E4E120E0CE5306401452F6A
:1006B6007014D283C28275B30F75B1017F407E0D6F
:1006C6007D03FC120E10D2007F407E0D7D037C0060
:0906D600120E10753506020586AE
:03000300020E9E4C
:100E9E00C0E0C0D0E52F7013E53024FE600304706F
:100EAE000AC2A8752F0075300FC283D0D0D0E032A1
:03002300020B3598
:100B3500C0E0C0D0C299C2AC859927C2983098FD53
:100B4500859928C2983098FD859929C298E527642A
:100B550041600BE52864416005E529B4410375351D
:100B650001E5276442600BE52864426005E529B488
:100B75004203753502E52724BE6017146019146019
:100B85001B24F7602424D560182437701F753501A0
:100B9500801A75350280157535038010753504800A
:100BA5000B7521007522018003752E01D2ACD0D0C2
:030BB500D0E0325B
:100026000203E7E86480F8E933E83360110460F01E
:10003600ED33EC337009E8FCE9FDEAFEEBFF220440
:1000460060DED3EB9FEA9EE99DE8C2E78CF0C2F73B
:1000560095F0400CE8CCF8E9CDF9EACEFAEBCFFB07
:100066001203B285D0F05804700320D5B3E80470AB
:10007600075002B2D50203F192D5EC0460F7E4CC46
:10008600C0E0C398F8603B94186008400DD0E0FBD0
:100096000203C9E4FBFAC9FC8028E830E406E4C997
:1000A600FBE4CAFCE830E305E4C9CACBFCE8540724
:1000B6006010F8C3E913F9EA13FAEB13FBEC13FC2F
:1000C600D8F130F52FC3E49CFCEF9BFFEE9AFEEDD2
:1000D60099FDD0E0FBEF4E4D4C701222DB0302037C
:1000E600EEEC2CFCEF33FFEE33FEED33FDED30E7A7
:1000F600EB0203C9EF2BFFEE3AFEED39FDD0E0FB34
:1001060050130BBB00030203F1ED13FDEE13FEEFDC
:0801160013FFEC13FC0203C906
:10011E00EC4D6011E8497017ED33EC3304600DE4DB
:10012E00FCFFFEFD22E933E8330470F80203E71208
:10013E0003B258046009E4CC248150062850090209
:10014E0003F12840030203EEC0E0EB4A7044B9808D
:10015E0006D0E0FB0203DDEF4E701CBD8008EBFF06
:10016E00EAFEE9FD80EBE98DF0A4FEE5F002020760
:10017E00E9CDF9EAFEEBFFEF89F0A4FCE5F0CE89BC
:10018E00F0A42EFFE435F0CD89F0A42DFEE435F079
:10019E008067EF4E7005BD80D780C3EF8BF0A4ACA7
:1001AE00F0EE8BF0A42CFCE435F0F8EF8AF0A42CE2
:1001BE00E5F038FCE433CB8DF0A42CFCE5F03BF8F5
:1001CE00EE8AF0A42CFCE5F038F8E433CF89F0A4E5
:1001DE002CFCE5F038CF3400CE89F0A42FFFE5F0EB
:1001EE003EFEE433C98DF0A42EFEE5F039CD8AF043
:1001FE00A42FFFE5F03EFEE43DFD33D0E0FB5007BB
:10020E000BBB000F0203F1EC2CFCEF33FFEE33FEC1
:06021E00ED33FD0203C9EF
:100224000203F1EC5D046005E8590470030203E77E
:100234001203B2580460F6EC4860F2EC7004FDFE60
:10024400FF22C860DB2481C85009C39860025006AD
:100254000203EE9850CAF582E9294B4A7005AB8235
:100264000203DD75F0007C1A7880C3EF9BEE9AEDF3
:1002740099400DC3EF9BFFEE9AFEED99FDE842F025
:10028400DC23ACF0D0E0FFD0E0FED0E0FDAB822078
:10029400E7101BEB60BAEC2CFCEF33FFEE33FEED02
:1002A40033FD0203C9E803F830E705C0F075F00038
:1002B400EF2FFFEE33FEED33FD40B830E7C280AAE6
:1002C40074F8CC6480CCC86480C8F58204604FC3E1
:1002D400EB9FF5F0EA9E42F0E99D42F0E89C45F080
:1002E400603C501DE5825FFFE582D313CB5BCBF40A
:1002F4002B5582FB50280ABA002409B90020088033
:100304001DE5825BFBE582D313CF5FCFF4C3132FCC
:100314005582FF50090EBE00050DBD00010CC3EB54
:100324009FF5F0EA9E42F0E99D42F0E89C45F060BA
:0903340007CC4820E701B3EC22DC
:10033D0075F020800E75F010800575F0087D007E3B
:10034D00007F003392D530D503120498EC33401062
:10035D00EF33FFEE33FEED33FDEC33FCD5F0ED2244
:0E036D00E5F0247EA2D513CC92E7CDCEFF2280
:10037B00EDD2E7CD33EC3392D524814006E4FFFE7A
:10038B00FDFC22FCE4CFCECDCC24E0501174FF80D9
:10039B00EDC3CC13CCCD13CDCE13CECF13CF047076
:0703AB00F030D5DE020498DA
:1006DF003E9248DA3ECCCCCD3F2AAAAB4000000078
:1006EF003F8000003F9837F03FB504F33FD744FCFD
:1006FF003E3172173EB172173F0515913EDE5BD941
:10070F00D2018002C201EDD2E7F8CD33EC33047091
:10071F000BBD800592D50203F10203E740FBD31412
:10072F0060F2F5F07C3FEE7A00C39496C8948B404C
:10073F00230AC89469C8941A401A0AC89468C894BE
:10074F001F40110AC8945AC89425400805F07A0032
:10075F00CDC2E7CDC0F08C628D638E648F65EA23C6
:10076F0023C0E024EFF582E43406F5831204B612B9
:10077F00002DECC0E0EDC0E0EEC0E0EFC0E01204F1
:10078F00A6A862A963AA64AB65120029D0E0FBD0CA
:10079F00E0FAD0E0F9D0E0B2E7F81202278C628DD0
:1007AF00638E648F659006DF74031203FCA862A941
:1007BF0063AA64AB6512011ED0E0600F24FBF582C3
:1007CF00E43406F5831204B612002D8C628D638E0D
:1007DF00648F65D0E0C3947FFDE49400FC12034264
:1007EF007B187A727931783F12011EA862A963AA29
:1007FF0064AB6512002D30010B7BD97A5B79DE7803
:05080F003E12011E2253
:1003B200E9D2E7C933E833F892D5EDD2E7CD33EC91
:0703C20033FC5002B2D5220A
:1003C900EC30E7100FBF000C0EBE00080DBD000495
:1003D9000BEB6014A2D5EB13FCED92E7FD2274FF41
:1003E900FCFDFEFF22E480F8A2D574FF13FC7D809A
:0303F900E480EFAE
:1003FC00C0E0EFFBEEFAEDF9ECF812011ED0E0F5DF
:10040C00F0EFFBEEFAEDF9ECF81204A6A3A3A3A30C
:10041C00E8C0E0E9C0E0EAC0E0EBC0E0C0F01201E7
:10042C001E1204B6A3A3A3A312002DD0F0D0E0FBA0
:0D043C00D0E0FAD0E0F9D0E0F8D5F0D422FD
:03000000020AA948
:0C0AA900787FE4F6D8FD758165020AF044
:10044900E88FF0A4CC8BF0A42CFCE98EF0A42CFC52
:100459008AF0EDA42CFCEA8EF0A4CDA8F08BF0A4D0
:100469002DCC3825F0FDE98FF0A42CCD35F0FCEB2F
:100479008EF0A4FEA9F0EB8FF0A4CFC5F02ECD39F4
:0F048900FEE43CFCEAA42DCE35F0FDE43CFC2261
:0E049800C3E49FFFE49EFEE49DFDE49CFC2275
:1004A600E493FC740193FD740293FE740393FF229C
:1004B600E493F8740193F9740293FA740393FB229C
:1004C6007401FF3395E0FEFDFC080808E6CF2FF621
:1004D60018E6CE3EF618E6CD3DF618E6CC3CF622FA
:100AB5000204E6E493A3F8E493A34003F68001F26D
:100AC50008DFF48029E493A3F85407240CC8C33342
:100AD500C4540F4420C8834004F456800146F6DF11
:100AE500E4800B0102040810204080900E78E47E1B
:100AF500019360BCA3FF543F30E509541FFEE49306
:100B0500A360010ECF54C025E060A840B8E493A3CC
:100B1500FAE493A3F8E493A3C8C582C8CAC583CAF7
:100B2500F0A3C8C582C8CAC583CADFE9DEE780BEAF
:010E9D000054
:00000001FF
