:020000040800F2
:10000000780C002061220008650A0008670A0008D1
:100010006B0A00086F0A0008730A0008000000005D
:10002000000000000000000000000000770A000847
:10003000790A0008000000007B0A00087D0A000819
:100040007B2200087B2200087B2200087B2200081C
:100050007B2200087B2200087B2200087B2200080C
:100060007B2200087B2200086F1000087B2200081A
:100070007B2200087B2200087B2200087B220008EC
:100080007B2200087B2200087B2200087B220008DC
:100090007B2200087B2200087B22000897100008C2
:1000A0007B2200087B2200087B2200087B220008BC
:1000B0002D170008371800087B2200087B22000853
:1000C0007B2200087B2200087B2200087B2200089C
:1000D0007B220008D72100087B220008491B00086A
:1000E0007B2200087B2200087B2200087B2200087C
:1000F0007B2200087B2200087B2200087B2200086C
:100100007B2200087B2200087B2200087B2200085B
:100110007B2200087B2200087B2200087B2200084B
:100120007B2200087B2200087B2200087B2200083B
:100130007B2200087B2200087B2200087B2200082B
:100140007B2200087B2200087B2200087B2200081B
:100150007B2200087B2200087B2200087B2200080B
:100160007B2200087B2200087B2200087B220008FB
:100170007B2200087B2200087B2200087B220008EB
:100180007B2200087B22000800F002F800F092F8C1
:100190000AA090E8000C82448344AAF10107DA45E2
:1001A00001D100F087F8AFF2090EBAE80F0013F0A2
:1001B000010F18BFFB1A43F001031847D064000079
:1001C000F0640000103A24BF78C878C1FAD852070A
:1001D00024BF30C830C144BF04680C6070470000C1
:1001E0000023002400250026103A28BF78C1FBD840
:1001F000520728BF30C148BF0B6070476E2904F01A
:10020000C583702904F01587662906F0BC8165292D
:1002100006F0B981672906F0B681612906F0B5813B
:1002200003681B0A28BF41F08001692904F0D081CE
:10023000642904F0CD81752904F0CA816F2904F086
:10024000A386782904F0E186E92904F03D86E429B3
:1002500004F03A86F52904F03786EF2904F0A086E9
:10026000F82904F0E0860368DB0928BF41F080012B
:10027000632905F0FB80732905F00081E32905F06F
:100280000B81F32905F01081002070471FB506F09F
:1002900070F904F0D9FE04000020002105F002FEF0
:1002A000401C60600020002105F0E6FDE0601FBDFD
:1002B00010B510BD05F08EF91146FFF7E7FF00F00D
:1002C00009F805F0B5F903B4FFF7F2FF03BC01F03C
:1002D00023FF000000F042FC00F0DAFC0121FB48A3
:1002E00002F08CFC0121FA4802F086FC8021F948DA
:1002F00002F082FC4FF48071F64802F07DFC00F0C1
:100300005BFEA82001F086FE00F0E0FE00F0EAFDB2
:1003100000F066FD41F61F4140F2E73001F05FFA60
:1003200001F03FF801F031F94FF4A57000F004FE40
:10033000E9A20021084601F06BF90121E34802F02F
:100340005DFC00262EE04FF48061E94802F056FC87
:100350004FF40061E64802F051FC4FF48051E4484C
:1003600002F04CFC0121E34802F048FC4FF4967087
:1003700001F0B2FE4FF48061DD4802F03DFC4FF425
:100380000061DB4802F038FC4FF48051D84802F09D
:1003900033FC0121D74802F02FFC4FF4967001F096
:1003A0009BFE761C032ECEDB002410E00121C84802
:1003B00002F024FC4FF4FA7001F08EFE0121C448D3
:1003C00002F01AFC4FF4FA7001F086FE641C052C52
:1003D000ECDB012001F034F8012001F07DFEC6A223
:1003E0000021084601F014F9F9E2C6480068012826
:1003F000FAD14FF4165001F05BFD4FF4165001F0A6
:1004000098FE01F0CBFD40F22551BF4803F0CFF933
:1004100000BF4021BC4803F079F90028F9D0412100
:10042000B94803F0C3F800BF4021B74803F06EF9A4
:100430000028F9D04121B44803F0B8F800BF4021AA
:10044000B14803F063F90028F9D04121AE4803F028
:10045000ADF800BF4021AC4803F058F90028F9D0AE
:100460004121A94803F0A2F801F04DF94FF47A7048
:1004700001F026F9012000F0E3FFA4A200210846C4
:1004800001F0C6F8A6A20121002001F0C1F824E085
:10049000A84A0021062001F0BBF8A74A0121062046
:1004A00001F0B6F84FF48061914802F0A7FB4FF4D9
:1004B000AF7001F011FE4FF480618D4802F09CFB9B
:1004C0004FF4AF7001F008FE9C480068012804D189
:1004D0009B480068012800D100E0D9E700BF7CE21A
:1004E0009648006801287ED19548006801287AD195
:1004F00000F0A6FF93A20021084601F089F895A21A
:100500000121002001F084F841F2883001F0E4FD7F
:100510004FF48061764802F071FB4FF4006174483B
:1005200002F06CFB00214FF0804003F00DFB58E01F
:100530005121754803F03AF800BF4021724803F09A
:10054000E5F80028F9D051216F4803F02FF800BFDB
:1005500040216D4803F0DAF80028F9D051216A48AB
:1005600003F024F800BF4021674803F0CFF80028CB
:10057000F9D04FF47A7001F0AFFD4221624803F0E8
:1005800015F800BF4021604803F0C0F80028F9D0FA
:1005900042215D4803F00AF800BF40215A4803F0A9
:1005A000B5F80028F9D04221574802F0FFFF00BFFC
:1005B0004021554803F0AAF80028F9D04FF47A708A
:1005C00001F08AFD6748006801280AD16648006882
:1005D000012806D10020594908605949086001E006
:1005E00001E0A5E700BF5F48006801282FD15E4801
:1005F000006801282BD100F023FF5CA200210846EF
:1006000001F006F85DA20121002001F001F85EA2D0
:100610000121052000F0FCFF17E0464A01210846B1
:1006200000F0F6FF444A0121062000F0F1FF59488E
:100630000068012809D158480068012805D1002028
:10064000484908604849086000E0E6E700BF5148B3
:100650000068012837D150480068012833D1810251
:10066000234802F0C9FA4FF40061214802F0C4FAAD
:100670004FF480511E4802F0C1FA012000F0E0FE64
:1006800046A20021084600F0C3FF49A20121002034
:1006900000F0BEFF9AE0274A0021062000F0B8FFD4
:1006A000254A0121062000F0B3FF464800680128D2
:1006B0000AD145480068012806D100203649086063
:1006C0003449086083E083E080E0000000000240DD
:1006D0000010024000040240B3F5CABCBBAFD6D044
:1006E000A1A3A1A3A1A3C7EBC9D4B5C80000000072
:1006F00000080240000C0240B3F5CABCBBAFCDEA13
:10070000B3C92100580000200048004041B0E5C9AD
:10071000FDCEC2D6D03A202020202020B6C800002E
:1007200042B0E5C9FDCEC2D6D03A202020202020FC
:10073000B6C80000190000201F000020380000206B
:100740003C000020C9FDCEC2CDEAB3C9A3A1A3A13C
:1007500000000000D7BCB1B8BAE3CEC2BBECD4C82D
:1007600000000000080000200C000020BAE3CEC208
:10077000BBECD4C8D6D0A1A3A1A300004120202067
:10078000202020B6C800000042202020202020B6D3
:10079000C80000005C0000206000002041B0E5BD02
:1007A000B5CEC2D6D0A3BA202020202020B6C800C3
:1007B00042B0E5BDB5CEC2D6D0A3BA2020202020BD
:1007C00020B6C800000000200400002063E700BF3E
:1007D00083480068012844D182480068012840D13C
:1007E0008102814802F008FA4FF400617E4802F06D
:1007F00005FA4FF480517C4802F000FA012000F025
:100800001FFE7AA20021084600F002FFAFF2680244
:100810000121002000F0FCFEAFF27402012105204E
:1008200000F0F6FE00206F4908606D4908607449C9
:1008300008607449086012E0734A0121002000F04A
:10084000E7FE724A0121052000F0E2FE6C480068D4
:10085000012804D16B480068012800D100E0EBE7D3
:1008600000BF6748006801287ED1664800680128FB
:10087000FAD100F0E5FD40F2DC5001F02DFC00F073
:10088000C5FB63A20021084600F0C2FE63A201215D
:10089000002000F0BDFE4FF48061534802F0ACF937
:1008A0004FF40061504802F0A7F94FF480514E48D0
:1008B00002F0A2F901215B4802F0A0F9002519E03D
:1008C00059485AA102685A4803F06CFE584A01215F
:1008D000032000F09DFE0121564802F08DF96420AE
:1008E00001F0FAFB0121534802F088F9642001F07D
:1008F000F3FB6D1CB5F5967FE2DB002040490860F4
:100900004049086000244EE001214B4802F076F98E
:100910004FF48061344802F071F94FF400613248BD
:1009200002F06CF94FF480512F4802F067F9012171
:100930003C4802F063F93C483CA102683C4803F0A3
:1009400031FE3B4A0121032000F062FE4FF4FA70B1
:1009500001F0C2FB0121384802F04EF94FF48061EA
:10096000214802F049F900E037E04FF400611E48E9
:1009700002F042F94FF480511B4802F03DF9012189
:10098000284802F039F9284828A10268284803F0CD
:1009900009FE274A0121032000F03AFE4FF4FA70C5
:1009A00001F09AFB641C032CAEDB00202349086095
:1009B00000F04DFB00201E4988711B490860012092
:1009C00000F03EFD1EA20021084600F021FE20A2FC
:1009D0000121002000F01CFE00E081E500BF04E5DD
:1009E00000000020040000200008024041BDB5CEF8
:1009F000C2BBECD4C842BDB5CEC2BBECD4C800006B
:100A0000480000204C000020190000201F0000209A
:100A1000C0EBD0C4D6D0A1A3A1A30000C8A6CAFD34
:100A2000A3BA0000000C0240100000202564000062
:100A30002500002000000240001002405800002065
:100A4000B1BEB4CECAB5D1E9BDE1CAF8000000001C
:100A5000D4D9B4CECAB5D1E9C7EBB0B4B8B4CEBB23
:100A6000BCFC0000704700BFFEE700BFFEE700BF10
:100A7000FEE700BFFEE77047704770477047000011
:100A80000CB50020019000907648006840F480305A
:100A90007449086000BF7348006800F4003000909B
:100AA0000198401C0190009818B90198B0F5A04F2A
:100AB000F1D16C48006800F4003010B101200090C2
:100AC00001E0002000900098012846D165484030A0
:100AD000006840F080506349403108606248006817
:100AE00040F44040604908605E48083000685D4955
:100AF000083108600846006840F400400860084675
:100B0000006840F4A05008605848091F0860081F9A
:100B1000006840F08070091F086000BF51480068FD
:100B200000F000700028F9D040F2057050490860CC
:100B30004C480830006820F003004A49083108603A
:100B40000846006840F00200086000BF45480830D1
:100B5000006800F00C000828F8D10CBD10B545481D
:100B6000006840F47000434908603E48006840F067
:100B700001003C49086000203A49083108603948C2
:100B800000683D490840374908603C48091D086035
:100B9000081F006820F48020091F086000203149E8
:100BA0000C310860FFF76CFF4FF00060314980396D
:100BB000086010BD70B5002000220223002402212D
:100BC000284D08352D6805F00C0020B1042806D00A
:100BD000082834D107E02A4D2A4E356033E02A4DEB
:100BE000284E35602FE01F4D2D1D2D68C5F3805414
:100BF0001C4D2D1D2D6805F03F0154B1224DB5FB54
:100C0000F1F5184E361D3668C6F3881605FB06F258
:100C100009E01B4DB5FBF1F5124E361D3668C6F3E3
:100C2000881605FB06F20F4D2D1D2D68C5F30145F5
:100C30006D1C6B00B2FBF3F5124E356003E0104DF6
:100C4000104E356000BF00BF064D08352D68C5F356
:100C500003150E4E705D0B4D2D68C540094E356075
:100C600070BD00000038024000700040085440078A
:100C7000003C024088ED00E0FFFFF6FE103000244B
:100C80000024F4007000002000127A00740000209C
:100C90001CB501211F2002F0D1F9012000908DF830
:100CA000040000208DF8060002208DF805000020C9
:100CB0008DF807006946454801F022FF4FF4E050E7
:100CC000009001208DF8040000208DF8060002201D
:100CD0008DF8050001208DF8070069463C4801F0B9
:100CE0000FFF4FF4E0513A4801F086FF03200090D7
:100CF00001208DF8040002208DF8050001208DF8F8
:100D000007006946334801F0FBFE0321314801F03A
:100D100073FF44F2B010009000208DF80400012011
:100D20008DF8070002208DF8050069462A4801F079
:100D3000E7FE012000908DF8040000208DF80600E9
:100D400002208DF8050000208DF807006946234831
:100D500001F0D6FE4020009000208DF804008DF8B0
:100D6000060001208DF8070000208DF80500694677
:100D7000184801F0C5FE1CBD10B54FF48061144841
:100D800001F03CFF4FF40061114801F037FF4FF4D0
:100D900080510F4801F032FF01210E4801F02EFF73
:100DA00010BD10B54FF48061094801F025FF4FF4E4
:100DB0000061074801F020FF4FF48051044801F022
:100DC0001BFF0121034801F017FF10BD0000024086
:100DD00000080240000C02400004024000100240E3
:100DE00000B58DB00121084602F028F90121080262
:100DF00002F07EF902200B9003208DF830000220D3
:100E00008DF833000BA9354801F07AFE04200B90D1
:100E100003208DF8300002208DF833000BA92F48F5
:100E200001F06EFE0121080202F0B7F900214FF433
:100E3000807002F0B2F9002007900A9009900890A3
:100E400007A801F0D7FA0020019001208DF80800D2
:100E500000208DF809000390059002208DF81800FD
:100E600001A91F4801F097FA0723012211461C48E7
:100E700001F017FB072302221146194801F011FB6C
:100E80000121174801F0CDFA0DB000BD10B50446A0
:100E9000134801F062FB00BF0221114801F07EFC03
:100EA0000028F9D00E4801F094FB10BD2DE9F04167
:100EB00007460C460025002608E03846FFF7E6FF07
:100EC0000544052001F008F9701CC6B2A642F4DB07
:100ED000B5FBF4F080B2BDE8F081000000000240F4
:100EE0000020014000B587B00121084602F0A6F8B5
:100EF0000121480702F0EBF81020059003208DF83F
:100F0000180002208DF81B0005A9244801F0F8FD07
:100F100000200190029003900220049001A900207B
:100F200001F06BFC0121002001F084FC0021084647
:100F300001F0CEFC07B000BD70B52DED048B04466A
:100F4000204605F093F941EC180B9FED150B53EC7F
:100F5000102B51EC180B04F0EDFF41EC180B9FED3A
:100F6000120B53EC102B51EC180B05F093F941ECDC
:100F7000190B9FED0F0B53EC102B04F0DBFF41EC32
:100F8000180B51EC180B05F02DF985B229460020FD
:100F900001F09EFCBDEC048B70BD0000000002401F
:100FA0000000000000408F40000000000000B04042
:100FB0006666666666660A400EB50121880302F021
:100FC00097F84FF4A06001F06BF90421012002F0C2
:100FD0009AF91020019000208DF808000C208DF85F
:100FE000090001208DF80A0001A802F0FDFB0A208B
:100FF0008DF8000000208DF801008DF8020001201E
:101000008DF80300684601F050F90EBD0EB50621BB
:10101000032002F078F94020019000208DF80800AC
:101020000C208DF8090001208DF80A0001A802F0BB
:10103000DBFB17208DF8000001208DF801008DF8F2
:1010400002008DF80300684601F02FF90EBD08B5C7
:1010500017208DF8000001208DF801008DF80200A6
:1010600000208DF80300684601F01FF908BD10B597
:10107000102002F01FFC68B1642001F02DF810214F
:101080000E4801F09FFD10B901200D4908601020A5
:1010900002F01BFC10BD10B5402002F00BFC60B14B
:1010A0004021084801F08EFD20B907480068401C27
:1010B00005490860402002F008FC10BD0004024011
:1010C00058000020000C0240100000201CB5012137
:1010D000022001F0B3FFC020009001208DF8040031
:1010E00000208DF8060002208DF8050001208DF803
:1010F000070069468D4801F003FDC0218B4801F0CF
:101100007BFD1CBD10B58948006820F4404087492C
:1011100008600846006840F4804008600120844967
:1011200008608449C1F89802042000F08DFF002077
:101130007F490860042000F087FF00207D49C1F846
:10114000980210BD10B57948006820F440407749F6
:1011500008600846006840F4804008600020744938
:10116000091F08607349C1F89C02042000F06CFF5D
:1011700001206F49091F08606E49C1F89C020420D4
:1011800000F062FF10BD10B500246848006820F42C
:1011900040406649086008460068086001206449CC
:1011A000086000F051FF01206249C1F8980200F088
:1011B0004BFF07E0601CC4B2FA2C03DDFFF7C2FF4F
:1011C000012010BD5A48803800680028F2D15849E3
:1011D000091F086000BFF4E710B500205449091F3B
:1011E00008605248006820F44040504908600846B2
:1011F000006840F48040086000204E49C1F89C021D
:10120000022000F021FF01204949091F0860022047
:1012100000F01AFF00204749C1F8980210BD10B530
:1012200000204349091F08604048006820F44040FE
:101230003E4908600846006840F48040086001208C
:101240003C49C1F89C02022000F0FEFE0120384912
:10125000091F0860022000F0F7FE00203549C1F8A0
:10126000980210BD70B504463048006820F4404034
:101270002E4908600846006840F48040086000205D
:101280002B49091F086000251DE0E00918B1012065
:101290002749086002E00020254908606006040E26
:1012A000022000F0D1FE01202149091F0860022020
:1012B00000F0CAFE00201F49C1F89802022000F089
:1012C000C3FE681CC5B2082DDFDB70BD70B50546D6
:1012D00000241648006820F440401449086008467D
:1012E00000680860002617E000201149091F086007
:1012F000022000F0A9FE01200E49C1F89802600604
:10130000040E0B488038006808B1601CC4B201208C
:1013100000F09AFE701CC6B2082EE5DB15B9FFF787
:101320007EFF01E0FFF758FF204670BD0004024039
:101330009C8240420080404270B5044600254FF434
:101340008071DE4801F058FC4021DC4801F054FC7B
:10135000012000F0C1FE00BF20E04021D74801F08D
:101360004DFC4FF4967000F06FFE04F08000802872
:1013700004D18021D14801F03FFC03E08021CF4817
:1013800001F03CFC4021CD4801F036FC4FF4967052
:1013900000F05AFE6006040E681CC5B2082DDCDBA6
:1013A00070BD1CB50121042001F048FE4FF470709F
:1013B000009002208DF8050001208DF80400002027
:1013C0008DF8060001208DF807006946BB4801F042
:1013D00097FB1CBD70B500244FF48071B74801F035
:1013E0000BFC4021B54801F007FC4FF4967000F06B
:1013F0002BFE00250EE08021B04801F0E3FB08B190
:1014000044F001046006040E4FF4967000F01CFED8
:10141000681CC5B2082DEEDB204670BD10B54FF438
:101420008071A64801F0E8FBFC20FFF785FFFFF77D
:10143000D1FF0446FFF7CEFF44EA2014E00910BDB7
:1014400070B5064600240125052406E0FFF7E6FFF7
:1014500005464FF4967000F0F7FD201EA4F101013F
:10146000CCB201D0002DF1D1002C04DD1DB9F82043
:10147000FFF762FF01E0012070BD4FF4967000F0AD
:10148000E3FD052406E0FFF7C9FF05464FF496701B
:1014900000F0DAFD201EA4F10101CCB201D0002D34
:1014A000F1D1002C0EDD6DB906F0F000FFF744FF1E
:1014B0004FF4967000F0C8FDF02101EA0610FFF726
:1014C0003BFF01E00120D7E70020D5E770B50646D5
:1014D00000240125052406E0FFF7A0FF05464FF490
:1014E000967000F0B1FD201EA4F10101CCB201D034
:1014F000002DF1D1002C04DD1DB9FA20FFF71CFFEF
:1015000001E0012070BD4FF4967000F09DFD0524B0
:1015100006E0FFF783FF05464FF4967000F094FD58
:10152000201EA4F10101CCB201D0002DF1D1002C7C
:101530000EDD6DB906F0F000FFF7FEFE4FF4967079
:1015400000F082FDF02101EA0610FFF7F5FE01E050
:101550000120D7E70020D5E770B504460D46142CCE
:1015600001DC032D01DD0024012535B904F18001E2
:10157000C8B2FFF765FF064605E004F19001C8B266
:10158000FFF75EFF0646304670BD10B54FF4807120
:101590004A4801F033FB4021484801F02DFB302040
:1015A000FFF74EFF4FF4967000F04EFD0C20FFF752
:1015B00047FF4FF4967000F047FD0120FFF740FF12
:1015C00010BD10B504462046FFF780FF10BD70B572
:1015D00005460E46144631462846FFF7BDFF204615
:1015E000FFF774FF70BD2DE9F0410546002628463F
:1015F00003F0EEF8C7B2002405E0285DFFF766FFB0
:101600000643601CC4B2BC42F7DB3046BDE8F08143
:101610002DE9F84F8046894614460026B346002738
:1016200049464046FFF798FF82464FF4967000F017
:101630000BFD4546CDF80090204603F0C9F800F0B8
:10164000FF0B33E020787F281CDD012F05D1681CBB
:10165000C5B200272020FFF7B4FF4FF4967000F0CA
:10166000F3FC14F8010BFFF7ACFF4FF4967000F099
:10167000EBFC14F8010BFFF7A4FF681CC5B2B01C0B
:10168000C6B213E0012F03D1681CC5B2002701E0E8
:10169000781CC7B2701CC6B214F8010BFFF791FF9B
:1016A00040EA0A0A4FF4967000F0CEFC20780D282C
:1016B00001D05E45C6DB5046BDE8F88F0008024009
:1016C0003EB504460121084601F001FD0120C0EBB2
:1016D000440084B201944AF20F40ADF800000020AB
:1016E000ADF80800ADF8020069464FF0804002F006
:1016F000A2F901221146900702F03EFE012188075F
:1017000002F022FA3EBD08B54FF4A06000F0C8FD1B
:101710001C208DF8000001208DF801008DF80200DA
:101720008DF80300684600F0C0FD08BD10B501212A
:10173000880702F038FE002850D0E74800780128DA
:1017400021D15421E54801F031FF00BF4021E34899
:1017500001F0DCFF0028F9D05421E04801F026FF19
:1017600000BF4021DD4801F0D1FF0028F9D054210D
:10177000DA4801F01BFF00BF4021D84801F0C6FF46
:101780000028F9D020E04D21D44801F00FFF00BF20
:101790004021D24801F0BAFF0028F9D04D21CF48AE
:1017A00001F004FF00BF4021CC4801F0AFFF00284A
:1017B000F9D04D21C94801F0F9FE00BF4021C748CA
:1017C00001F0A4FF0028F9D0C348007880F00100A0
:1017D000C14908700121880702F0F6FD10BD7FB5F0
:1017E00005460C460121022001F071FC0295ADF87E
:1017F00004400020ADF80C00ADF8060001A9B8487F
:1018000002F019F901221146B54802F0B5FD1D207C
:101810008DF8000000208DF8010003208DF80200F3
:1018200001208DF80300684600F03FFD0121AC481F
:1018300002F08AF97FBD10B52DED048B0121A84877
:1018400002F0B1FD00287DD0A64890ED000ADFED42
:10185000A60AB4EEE00AF1EE10FA0BD2006804F02A
:1018600017FE41EC180B53EC182BA0A1A14802F075
:1018700099FE14E09B4890ED000ADFED9B0AB4EE60
:10188000E00AF1EE10FA0ADD006804F001FE41EC16
:10189000180B53EC182B98A1964802F083FE984839
:1018A00090ED000ADFED900AB4EEE00AF1EE10FAD6
:1018B0000BD2006804F0ECFD41EC180B53EC182B34
:1018C0008AA1904802F06EFE14E08D4890ED000A67
:1018D000DFED850AB4EEE00AF1EE10FA0ADD0068E9
:1018E00004F0D6FD41EC180B53EC182B82A185486F
:1018F00002F058FE7B4890ED000ADFED830AB4EE5B
:10190000E00AF1EE10FA49DD80484078804908602D
:101910007E4880787F49086009687D4A126802EB3A
:10192000012004F08CFC41EC190B9FED7B0B53EC78
:10193000102B04F0FFFA41EC180B04F0C9FA6949C6
:10194000086000E080E0084690ED000ADFED660ADE
:10195000B4EEE00AF1EE10FA0BD2006804F098FD44
:1019600041EC180B53EC182B60A1624802F01AFEF0
:1019700014E05C4890ED000ADFED5B0AB4EEE00A8B
:10198000F1EE10FA0ADD006804F082FD41EC180B5C
:1019900053EC182B58A1574802F004FE584890ED1C
:1019A000000ADFED590AB4EEE00AF1EE10FA47DD65
:1019B0005648407856490860544880785549086030
:1019C0000968534A126802EB012004F038FC41EC2C
:1019D000190B9FED510B53EC102B04F0ABFA41ECBB
:1019E000180B04F075FA46490860084690ED000AA5
:1019F000DFED3D0AB4EEE00AF1EE10FA0BD200681A
:101A000004F046FD41EC180B53EC182B37A13D4870
:101A100002F0C8FD14E03A4890ED000ADFED320A0A
:101A2000B4EEE00AF1EE10FA0ADD006804F030FDD1
:101A300041EC180B53EC182B2FA1324802F0B2FDE9
:101A40000121274802F0C0FCBDEC048B10BD30B56D
:101A50008BB005460C460121022001F038FB012124
:101A6000084601F0EBFA4020099002208DF828008A
:101A700000208DF82A0001208DF82B0002208DF81F
:101A8000290009A9264801F03BF80795ADF8184050
:101A90000020ADF82000ADF81A0006A9104801F0AA
:101AA000CAFF7020ADF804000120ADF80600002048
:101AB000ADF8100001A90A4802F052F808210848C0
:101AC00002F0DBF90121064802F020F80121044868
:101AD00002F03AF80BB030BD64000020004800402E
:101AE00000040040500000200000C842252E32664D
:101AF0000000000019000020252E316600000000C3
:101B0000540000201F0000200000DC4215000020CF
:101B1000340000202C00002000000000000059408C
:101B200000000240FE4902E0491E01B905E0FD48FF
:101B3000008800F020000028F6D000BFF948001D02
:101B40000088C0F30800704710B52DED048B40F2FB
:101B50002551F44801F0F0FD01287BD1002240F22C
:101B60002551F04801F0ADFD4021EE4801F0DBFDCC
:101B7000FFF7D8FFEC490870FFF7D4FFEA49487037
:101B8000FFF7D0FFE8498870FFF7CCFFE649C8703F
:101B900008460078712803D00846C078712802D121
:101BA0000120E2490860E0480078722803D0DE484E
:101BB000C078722802D10120DD490860DA48007837
:101BC00074282DD1D848C0786F2829D1D6484078BC
:101BD000D8490860D4488078D74908600968D54A50
:101BE000126802EB012004F02AFB41EC190B9FED77
:101BF000D30B53EC102B04F09DF941EC180B04F0BF
:101C000067F9D0490860084690ED000ADFEDCE0A7A
:101C1000B4EEE00AF1EE10FA02DB0120CB490860D5
:101C2000C14800786D282FD1BF48C07870282BD1CB
:101C3000BD484078BF490860BB488078BE4908600D
:101C40000968BC4A126802EB012004F0F8FA41EC82
:101C5000190B00E01CE19FEDB90B53EC102B04F0C5
:101C600069F941EC180B04F033F9B94908600846EA
:101C700090ED000ADFEDB40AB4EEE00AF1EE10FADE
:101C800002DB0120B3490860A7480078792802D117
:101C90000120B1490860A44800787A2802D10120C7
:101CA000AE490860A0480078652823D19E48C078D6
:101CB00065281FD19C4840789E4908609A488078E2
:101CC0009D49086009689B4A126802EB012004F0F4
:101CD000B6FA41EC190B9FED990B53EC102B04F065
:101CE00029F941EC180B04F0F3F89649086001203B
:101CF0009B4908608C480078662823D18A48C078C0
:101D000066281FD1884840788A49086086488078CC
:101D1000894908600968874A126802EB012004F0CB
:101D20008EFA41EC190B9FED850B53EC102B04F050
:101D300001F941EC180B04F0CBF88549086001204B
:101D40008849086078480078672823D17648C078A9
:101D500067281FD1744840787649086072488078B7
:101D6000754908600968734A126802EB012004F0A3
:101D700066FA41EC190B9FED710B53EC102B04F03C
:101D8000D9F841EC180B04F0A3F86E490860012063
:101D90007549086064480078682823D16248C07893
:101DA00068281FD160484078624908605E488078A2
:101DB0006149086009685F4A126802EB012004F07B
:101DC0003EFA41EC190B9FED5D0B53EC102B04F028
:101DD000B1F841EC180B04F07BF85D490860012074
:101DE00062490860504800786A2823D14E48C0787C
:101DF0006A281FD14C4840784E4908604A4880788C
:101E00004D49086009684B4A126802EB012004F052
:101E100016FA41EC190B9FED490B53EC102B04F013
:101E200089F841EC180B04F053F84649086001208A
:101E30004F4908603C4800786B2823D13A48C07865
:101E40006B281FD1384840783A4908603648807876
:101E5000394908600968374A126802EB012004F02A
:101E6000EEF941EC190B9FED350B53EC102B04F000
:101E700061F841EC180B04F02BF83549086001209B
:101E80003C490860012240F22551264801F019FC26
:101E90000821244801F03AFC012806D108212148F4
:101EA00001F041FC1F4801F085FBBDEC048B10BD27
:101EB00010B586B004460121082001F0BFF80121C9
:101EC000880401F004F9072209212B4800F0A3FE41
:101ED00007220821284800F09EFE124801F04CFA23
:101EE0004FF44070049002208DF814008DF8150016
:101EF00000208DF8160001208DF8170004A91E4857
:101F000000F0FEFD00940020ADF80400ADF80600DE
:101F1000ADF80800ADF80C000C20ADF80A002DE07B
:101F200080841E0000480040150000204000002072
:101F300044000020340000202C000020000000009D
:101F400000005940500000200000BE423800002030
:101F5000540000203C000020480000204C000020DD
:101F6000080000200C0000205C0000206000002021
:101F70000000002004000020000C024069462348B5
:101F800001F061FA0121214801F0E5FA012240F255
:101F900025511E4801F095FB06B010BD08B54FF461
:101FA000A06000F07DF927208DF8000000208DF85A
:101FB000010001208DF802008DF80300684600F052
:101FC00074F908BD0FB438B505A800901048009A00
:101FD000049902F0D5FA002000900D4802F0F8FBB9
:101FE00085B200240DE000BF4021084801F08EFBBF
:101FF0000028F9D00648015D044801F0D7FA601CBA
:1020000084B2AC42EFDB38BC5DF814FB0048004002
:10201000F802002010B504466FF0040000F092F9B9
:10202000E11704EB5171C1F3C701394A1170104631
:10203000007800EB4001C1EBC0104FF6FF7101EAE0
:10204000C0003449088010BD0146314A12784A4325
:102050004FF0E0235A6100229A611A46126942F059
:1020600001021A6100BF4FF0E022106900F0010286
:102070001AB100F48032002AF5D04FF0E022126944
:1020800022F001024FF0E0231A6100229A617047AA
:102090000146204A12884A434FF0E0235A61002249
:1020A0009A611A46126942F001021A6100BF4FF0AC
:1020B000E022106900F001021AB100F48032002A17
:1020C000F5D04FF0E022126922F001024FF0E02338
:1020D0001A6100229A61704770B504464FF4077088
:1020E00094FBF0F0C6B24FF4077094FBF0F100FBE4
:1020F000114085B205E04FF40770FFF7C9FF701E6D
:10210000C6B2002EF7D115B12846FFF7C1FF70BD4A
:10211000840000208600002000BF704700BF4C4AAA
:10212000128802F04002002AF9D0C2B2484B9A80CD
:10213000704710B588B004460121084600F07EFFC4
:102140000121102000F0D4FF07220921414800F0AE
:1021500062FD07220A213F4800F05DFD4FF4C06098
:10216000069002208DF81C008DF81D0000208DF8CF
:102170001E0001208DF81F0006A9364800F0C0FCA3
:1021800002940020ADF80C00ADF80E00ADF8100080
:10219000ADF814000C20ADF8120002A92C4801F093
:1021A00052F901212A4801F0D6F9012240F22551C5
:1021B000274801F086FA25208DF8040003208DF8C9
:1021C00005008DF8060001208DF8070001A800F039
:1021D0006CF808B010BD10B540F225511C4801F054
:1021E000ABFA10B31A4801F0E5F9C4B21A480088F6
:1021F00000F40040C8B91848008800F4804060B17D
:102200000A2C03D000201449088020E012480088DE
:1022100040F400401049088019E00D2C06D10E480A
:10222000008840F480400C49088010E00A4800888B
:10223000C0F30D0009490C5407480088401C0649AA
:10224000088008460088C72801DD0020088010BDEE
:1022500000100140000002408C00002050050020CA
:102260000948804709480047FEE7FEE7FEE7FEE72A
:10227000FEE7FEE7FEE7FEE7FEE7FEE70448054966
:10228000054A064B704700005D0B000889010008F5
:1022900078060020780C00207808002078080020BC
:1022A00032490143324A1160704770B50021002362
:1022B0000F22C4781CB32E4C246804F4E064C4F5E7
:1022C000E064C4F30721C1F10404E3B20A41447895
:1022D0009C40E1B28478144021430C07210E254C28
:1022E00005786155047804F01F050124AC40057899
:1022F0006D11AD0005F1E025C5F8004109E0047855
:1023000004F01F050124AC401B4D0678761145F8FA
:10231000264070BD194A0A400243154B1B1F1A6024
:10232000704739B1124A121D12680243104B1B1D2F
:102330001A6006E00E4A121D126882430C4B1B1DE8
:102340001A607047042808D14FF0E021096941F074
:1023500004014FF0E022116107E04FF0E02109692C
:1023600021F004014FF0E022116170470000FA05EE
:102370000CED00E000E400E080E100E080FFFF1FE2
:1023800010B50121080200F008FF00214FF4807011
:1023900000F003FF10BD30B5024600200023506856
:1023A000F84C20400D790C6844EA05242043506025
:1023B0009068F54C2040D1E903542C438D682C43A0
:1023C0004D7944EA450420439060D06A20F47000BF
:1023D0000C7D641EE4B2234340EA0350D06230BD5A
:1023E00000210160017141718160C16001610121C1
:1023F000017570470021E54A1168E54A1140D0E9AE
:1024000000231A4383681A43C3681A431143E14AFD
:10241000C2F8041370470021016041608160C1600F
:10242000704721B1826842F00102826003E0826855
:1024300022F00102826070470A4600214168D64BB3
:1024400019401143416070474162826270470A46F9
:102450000021416821F01F0111434160704738B1EC
:10246000CA49096841F40001CA4AC2F8041306E0E7
:10247000C649096821F40001C64AC2F8041370472E
:1024800038B1C249096841F48001C24AC2F8041354
:1024900006E0BE49096821F48001BE4AC2F804136F
:1024A0007047F0B504460D4600200021092D11DDCE
:1024B000E068A5F10A0606EB4607072606FA07F1CB
:1024C0008843A5F10A0606EB460603FA06F108431F
:1024D000E0600CE0206905EB4507072606FA07F1E6
:1024E000884305EB450603FA06F108432061072AF5
:1024F0000FDA606B561E06EB86071F2606FA07F1F9
:102500008843561E06EB860605FA06F1084360630B
:1025100022E00D2A0FDA206BD61F06EB86071F2656
:1025200006FA07F18843D61F06EB860605FA06F180
:102530000843206310E0E06AA2F10D0606EB86076F
:102540001F2606FA07F18843A2F10D0606EB860660
:1025500005FA06F10843E062F0BD816841F0804170
:1025600081607047014600208A6802F080420AB10B
:10257000012000E00020704721B1826842F48062AF
:10258000826003E0826822F480628260704721B139
:10259000826842F00202826003E0826822F0020256
:1025A0008260704710B50A4600210023416821F47B
:1025B0006041531E41EA4331416010BD21B1426880
:1025C00042F40062426003E0426822F4006242602A
:1025D00070470146C86C80B270476C48001D0068A7
:1025E000704721B1826842F48072826003E08268A1
:1025F00022F480728260704721B1826842F40072D6
:10260000826003E0826822F400728260704738B111
:102610005E49096841F400515E4AC2F8041306E0BD
:102620005A49096821F400515A4AC2F80413704704
:10263000F0B504461546002000220026092911DDC8
:10264000E068A1F10A0707EB470C072707FA0CF22D
:102650009043A1F10A0707EB470703FA07F210437B
:10266000E0600CE0206901EB410C072707FA0CF24F
:10267000904301EB410703FA07F210432061A06B7E
:10268000C0F30156EF1C06F1010CA7EB0C0707EB9A
:10269000870C1F2707FA0CF29043EF1C06F1010C80
:1026A000A7EB0C0707EB870701FA07F21043A063BB
:1026B000F0BD10B50A4600210023816B21F44011C2
:1026C000531E41EA0351816310BD08B500230093F6
:1026D0000090009B0B440093009B1A6008BD0A46C3
:1026E0000021816821F470211143816070470A46FE
:1026F0000021816821F44011114381607047816895
:1027000041F4800181607047014600208A6802F42C
:1027100080020AB1012000E00020704721B1426828
:1027200042F48062426003E0426822F480624260C8
:10273000704721B1426842F48052426003E042682F
:1027400022F480524260704708B502460020009093
:10275000009201F12800009B184400900098006846
:1027600080B208BD10B50B460021D9B2012404FA8D
:1027700001F11AB144680C43446002E044688C43A0
:10278000446010BDFFFEFFFCFDF7FFC004230140C5
:10279000E030FCFF00200140FFFD3FFF024600202B
:1027A00013680B400BB1012000E000207047CA43C2
:1027B0000260704770B502460020002300240B120F
:1027C000556801268E4005EA060415681D4015B1BE
:1027D0000CB1012000E0002070BD00220A12D3439A
:1027E0000360704710B50121480700F0C5FC0021C7
:1027F0004FF0005000F0C0FC10BD30B500220023A7
:102800007B4C226840F6FE748440A243D1E9004527
:102810002C438D682C43CD6844EA050303FA00F489
:102820002243734C226030BD002101604160816011
:10283000C160704739B16E4A1268012383401A4360
:102840006B4B1A6006E06A4A1268012383409A4380
:10285000674B1A60704710B551B1654A121D126876
:1028600004090123A3401A43614B1B1D1A6009E0B0
:102870005F4A121D126804090123A3409A435C4B6E
:102880001B1D1A6010BD40B15949091D096841F06E
:102890000301574A121D116007E05549091D0968D7
:1028A00021F00301524A121D1160704710B53AB170
:1028B0004F4B1B6801FA00F423434D4C236006E0A4
:1028C0004B4B1B6801FA00F4A343494C236010BD35
:1028D00008B500220092464A009200F10802009BCF
:1028E0001A440092009A116008BD08B500220092B7
:1028F0003F4A009200F11402009B1A440092009A91
:10290000116008BD30B500240023082802D142EA36
:10291000012401E042EA0144354B00F120052B443B
:102920001C6030BD08B50146002000903048009082
:102930002C2000EB9100009A104400900098006851
:1029400080B208BD41B12A4A12684FF480538340D7
:102950001A43274B1A6007E0254A12684FF4805348
:1029600083409A43224B1A60704710B53AB1204B0E
:102970001B6801FA00F423431D4C236006E01C4B46
:102980001B6801FA00F4A343194C236010BD10B575
:1029900002460020164B34331B6801FA02F4234030
:1029A0000BB1012000E0002010BD01FA00F2104B35
:1029B00034331A60704730B50246002000230C4CB7
:1029C000246801FA02F504EA0503094C343424684A
:1029D00001FA02F52C4014B10BB1012000E00020F7
:1029E00030BD01FA00F2024B34331A607047000028
:1029F0000074004010B504469848844208D1012173
:102A0000084600F086FB0021012000F082FB76E002
:102A10009348844208D10121022000F07AFB002172
:102A2000022000F076FB6AE08E48844208D1012142
:102A3000042000F06EFB0021042000F06AFB5EE041
:102A40008948844208D10121082000F062FB00215E
:102A5000082000F05EFB52E08448844208D1012146
:102A6000102000F056FB0021102000F052FB46E041
:102A70007F48844208D10121202000F04AFB002138
:102A8000202000F046FB3AE07A48844208D1012138
:102A9000402000F03EFB0021402000F03AFB2EE0F9
:102AA0007548844208D10121802000F032FB0021CA
:102AB000802000F02EFB22E07048844208D10121E2
:102AC000801500F026FB0021A01500F022FB16E087
:102AD0006B48844208D10121401500F01AFB002107
:102AE000601500F016FB0AE06648844207D1012118
:102AF000001500F00EFB0021201500F00AFB10BDB0
:102B0000F0B50A4600210023002400BF3DE0012566
:102B100005FA01F3156805EA03049C4234D10568FF
:102B20004F000326BE40B543056015794E00B54001
:102B30000668354305601579012D02D01579022DFF
:102B400016D185684F000326BE40B5438560557990
:102B50004E00B540866835438560456801268E4045
:102B6000B5434560456896798E40B6B235434560B9
:102B7000C5684F000326BE40B543C560D5794E00F9
:102B8000B540C6683543C560491C1029BFD3F0BDA8
:102B90004FF6FF7101600021017141718171C171B6
:102BA000704708B54FF480320092009A0A430092B1
:102BB000009AC261C161009AC261C2690092C26991
:102BC000009208BD0246002013690B400BB10120A2
:102BD00000E0002070470146086980B27047024655
:102BE000002053690B400BB1012000E0002070472A
:102BF0000146486980B2704701837047418370473E
:102C00000AB1018300E04183704741617047426926
:102C10004A4042617047F0B5002300244D07ED0E95
:102C200002FA05F3CE1000F1200555F826504E07A4
:102C3000F70E0F26BE40B543CF1000F1200646F830
:102C40002750CE1000F1200555F8265045EA030420
:102C5000CE1000F1200545F82640F0BD00000240EE
:102C60000004024000080240000C02400010024034
:102C70000014024000180240001C024000200240E4
:102C80000024024000280240F948006840F001009A
:102C9000F74908600020F64908310860F4480068E8
:102CA000F4490840F2490860F348091D0860F348F8
:102CB000EF4984310860F0481038091D0860EC487D
:102CC000006820F48020EA4908600020E8490C31BF
:102CD0000860E7498C31086070470021E44A921C83
:102CE000117011460870704710B50146002200238C
:102CF00000204A11012A02D1DD4C236808E0022A93
:102D000003D1DB4C7034236802E0D94C743423685F
:102D100001F01F02012494401C400CB1012000E08E
:102D2000002010BD38B5002000900024002500BF11
:102D30003120FFF7D9FF05460098401C009000980D
:102D4000B0F5A04F01D0002DF2D03120FFF7CCFF1D
:102D500008B1012400E00024204638BD01460020CF
:102D6000C34A106820F0F80040EAC10010607047C4
:102D7000C349086070470021BD4A7032117011705C
:102D8000012802D004280AD104E00121B84A703297
:102D9000117005E00521B64A7032117000E000BFE5
:102DA00000BF7047B7490860704770B5049C41EA9E
:102DB00082150126C6EB530645EA0645054345EA5A
:102DC0000465AB4E361D356070BDAD490866704771
:102DD000820142EA0172A64B84331A607047A84907
:102DE0008866704710B5830143EA016343EA0273C2
:102DF0009F4C8834236010BDA14908677047A049E3
:102E0000C864704702460020994B0833186820F0C8
:102E1000EC6042EA01031843954B08331860704791
:102E200002460020924B0833186820F0784042EAAE
:102E3000010318438E4B0833186070470146002089
:102E40008B4A0832106820F0030008431060704776
:102E500087480830006800F00C00704701460020E9
:102E6000834A0832106820F0F00008431060704771
:102E7000014600207E4A0832106820F4E0500843E2
:102E80001060704701460020794A0832106820F42B
:102E9000604040EAC10010607047F0B50021002298
:102EA0000024022500260223714F08373F6807F0EF
:102EB0000C0121B1042905D0082937D105E0724F52
:102EC000076036E0714F076033E0694F3F1D3F6890
:102ED000C7F38056664F3F1D3F6807F03F036EB152
:102EE0006A4FB7FBF3F7DFF888C10CF1040CDCF88C
:102EF00000C0CCF3881C07FB0CF40CE0624FB7FB5E
:102F0000F3F7DFF86CC10CF1040CDCF800C0CCF373
:102F1000881C07FB0CF4564F3F1D3F68C7F3014761
:102F20007F1C7D00B4FBF5F7076002E0564F076099
:102F300000BF00BF4E4F08373F6807F0F001090996
:102F4000534F7A5C0768D7404760494F08373F685E
:102F500007F4E051890A4E4F7A5C4768D740876092
:102F6000434F08373F6807F46041490B484F7A5C8C
:102F70004768D740C760F0BD002100F44072B2F549
:102F8000407F0AD13A4A0832116821F4F811414AC7
:102F900002401143364A08321160354A70321268D5
:102FA000C0F30B031A43324B70331A607047354934
:102FB00044390860704733494039086070473649E2
:102FC0000860704701460020294A8C32106820F0C2
:102FD0001F004A1E1043264A8C321060704701467B
:102FE0000020234A8C32106820F4F8504A1E40EA30
:102FF00002201F4A8C3210607047014600201C4A94
:103000008C32106820F4401008431060704701466D
:103010000020174A8C32106820F4400008431060EA
:10302000704701460020124A8C32106820F440306C
:1030300008431060704719490860704739B10C4A5D
:103040003032126802430A4B30331A6006E0084AF5
:10305000303212688243064B30331A607047F9B140
:10306000034A343212680243014B34331A601CE0C5
:1030700000380240FFFFF6EA103000240030002044
:1030800000004742800E47420024F40000127A00FC
:103090008E000020FFFCFF0F5C014742E011474219
:1030A0008F4A126882438E4B1A60704739B18C4A3E
:1030B000121D126802438A4B1B1D1A6006E0884AE3
:1030C000121D12688243864B1B1D1A60704739B16E
:1030D000834A0C3212680243814B0C331A6006E0BB
:1030E0007F4A0C32126882437D4B0C331A60704762
:1030F00039B17B4A103212680243794B10331A609F
:1031000006E0774A103212688243754B10331A601A
:10311000704739B1724A243A12680243704B243B1B
:103120001A6006E06E4A243A126882436C4B243BD4
:103130001A60704739B16A4A203A12680243684BF4
:10314000203B1A6006E0664A203A12688243644BCC
:10315000203B1A60704739B1614A1C3A1268024339
:103160005F4B1C3B1A6006E05D4A1C3A12688243C2
:103170005B4B1C3B1A60704739B1594A143A1268CC
:103180000243574B143B1A6006E0554A143A126842
:103190008243534B143B1A60704739B1504A103A7E
:1031A000126802434E4B103B1A6006E04C4A103A3C
:1031B000126882434A4B103B1A60704739B1484A43
:1031C0001C3212680243464B1C331A6006E0444A24
:1031D0001C3212688243424B1C331A60704739B16B
:1031E0003F4A2032126802433D4B20331A6006E00A
:1031F0003B4A203212688243394B20331A607047B1
:1032000039B1374A243212680243354B24331A60ED
:1032100006E0334A243212688243314B24331A6069
:10322000704739B12E4A2C32126802432C4B2C3392
:103230001A6006E02A4A2C3212688243284B2C334B
:103240001A60704739B1264A303212680243244B63
:1032500030331A6006E0224A303212688243204B33
:1032600030331A607047012808D11D493C31096884
:1032700041F008011A4A3C32116007E018493C311C
:10328000096821F00801164A3C321160704739B1D3
:10329000134A273A12780243114B273B1A7006E073
:1032A0000F4A273A127882430D4B273B1A7070471A
:1032B0000B484030006840F0807009494031086098
:1032C000704701460020064A283A12680A400AB1AF
:1032D000012000E00020704701492639087070473E
:1032E0003438024010B501218803FFF756FF002152
:1032F0004FF48040FFF751FF10BD1C490860704734
:103300001B490862704730B500228B071C0F0F2342
:1033100003FA04F2154B08338C1053F8243093430E
:10332000124C08348D1044F8253023468C1053F885
:1033300024308C07240F00FA04F423430B4C083488
:103340008D1044F8253030BD0949DC3108607047E4
:10335000084908607047002004492031096801F4D9
:10336000807109B1012000E0002070470038014061
:10337000000027420004274210B50446FA48844260
:1033800008D101211020FFF708FF00211020FFF7CE
:1033900004FF57E0F548844209D101214804FFF7B2
:1033A000EBFE00214FF40030FFF7E6FE4AE0F04864
:1033B000844209D101218804FFF7DEFE00214FF489
:1033C0008020FFF7D9FE3DE0EA48844209D101217F
:1033D000C804FFF7D1FE00214FF40020FFF7CCFE18
:1033E00030E0E548844209D101210805FFF7C4FE19
:1033F00000214FF48010FFF7BFFE23E0DF48844236
:1034000008D101212020FFF7C8FE00212020FFF76E
:10341000C4FE17E0DA48844209D101218807FFF78A
:10342000ABFE00214FF08040FFF7A6FE0AE0D54832
:10343000844207D101214005FFF79EFE002160056F
:10344000FFF79AFE10BD2DE9FF4705460E46002402
:10345000A14600BFA046B08900B100BF2C8A24F469
:103460004054F08804432C82AC8941F20C608443C0
:10347000B08831890843718908430443AC81AC8A20
:1034800024F44074B0890443AC826846FFF705FD1C
:10349000B548854202D0B948854202D1DDF80C908A
:1034A00001E0DDF80890A88900F4004040B109EB84
:1034B000C90000EB091031684900B0FBF1F707E0E3
:1034C00009EBC90000EB091031688900B0FBF1F786
:1034D0006420B7FBF0F004012009642101FB10789F
:1034E000A88900F4004040B1322000EBC800B0FBD6
:1034F000F1F000F00700044308E0322000EB081070
:103500006421B0FBF1F000F00F0004432C81BDE812
:10351000FF874FF41651016000218180C180018135
:103520000C21418100218181704710B502460020A5
:10353000108A20F470600B884C8823438C882343C6
:10354000CC8823431843108210BD002101804180A4
:103550008180C180704721B1828942F4005282810A
:1035600004E082894DF6FF731A4082817047028B16
:1035700002F47F420283028B0A430283704721B127
:10358000828942F40042828103E08289C2F30E0202
:103590008281704721B1828A42F40062828204E013
:1035A000828A4FF2FF731A4082827047C1F3080289
:1035B0008280704701468888C0F308007047028AFD
:1035C0004FF6F0731A400282028A0A430282704761
:1035D00021B1828942F00202828104E082894FF6A1
:1035E000FD731A408281704782894FF2FF731A403F
:1035F000828182890A4382817047028A4FF6DF7393
:103600001A400282028A0A430282704721B1028A6A
:1036100042F48042028204E0028A4BF6FF731A40B1
:1036200002827047818941F001018181704721B197
:10363000828A42F00802828204E0828A4FF6F7739F
:103640001A4082827047028BD2B20283028B42EA16
:1036500001220283704721B1828A42F020028282D5
:1036600004E0828A4FF6DF731A408282704721B1EC
:10367000828A42F01002828204E0828A4FF6EF735F
:103680001A4082827047828A4FF6FB731A40828208
:10369000828A0A438282704721B1828A42F0020202
:1036A000828204E0828A4FF6FD731A40828270475C
:1036B0001AB1838A0B43838202E0838A8B4383821D
:1036C0007047F0B50346002400260025002040F690
:1036D0006A17B94200D100BF1846C1F3421401F085
:1036E0001F06012707FA06F5012C01D10C3004E072
:1036F000022C01D1103000E014301AB107682F43BA
:10370000076002E00768AF430760F0BD0246002093
:10371000B1F5007F00D100BF13880B400BB1012031
:1037200000E00020704701F40072B2F5007F00D184
:1037300000BFCA430280704770B5024600240023D0
:103740000025002040F66A16B14200D100BFC1F347
:10375000421501F01F03012606FA03F3012D13D1D0
:103760009689334017E000000010014000440040FB
:1037700000480040004C0040005000400014014050
:1037800000780040007C0040022D02D1168A3340B0
:1037900001E0968A33400C12012606FA04F41688DA
:1037A000344013B10CB1012000E0002070BD10B511
:1037B0000022002340F66A14A14200D100BF0A1281
:1037C00001249440A3B2DC43048010BD0020414991
:1037D0000860091D0860091D0860091D08603E4851
:1037E0003C4914310860704700213A498279002A27
:1037F0003AD00A46126803689A430B461A600A1DBB
:10380000126803689A430B1D1A60027911440A6812
:1038100003681A430A602F4A0832126803689A4301
:103820002C4B08331A601A1D126803689A43294BFF
:103830000C331A604279102A0ED11A1F12680368DD
:103840001A43244B08331A601A1D126803681A437E
:10385000204B0C331A600DE01E49427911440A686E
:1038600003681A430A6005E0027911440A68036894
:103870009A430A6070470021016001710C21417177
:103880000021817170471349103109680143114AC1
:10389000103211607047014600200E4A143212683F
:1038A0000A400AB1012000E00020704709491431A4
:1038B0000860704701460020064A143212680A4028
:1038C0000AB1012000E0002070470249143108606D
:1038D00070470000003C0140FFFF7F0010B5044628
:1038E000FE48844208D101210846FFF756FC00211A
:1038F0000120FFF752FC9DE0B4F1804F08D1012177
:103900000846FFF739FC00210120FFF735FC91E064
:10391000F348844208D101210220FFF72DFC002149
:103920000220FFF729FC85E0EE48844208D10121FE
:103930000420FFF721FC00210420FFF71DFC79E0A3
:10394000E948844208D101210820FFF715FC002135
:103950000820FFF711FC6DE0E448844208D1012102
:103960001020FFF709FC00211020FFF705FC61E0A3
:10397000DF48844208D101212020FFF7FDFB002110
:103980002020FFF7F9FB55E0DA48844208D10121F5
:103990000220FFF702FC00210220FFF7FEFB49E0B6
:1039A000D548844209D101210804FFF7F6FB002124
:1039B0004FF48030FFF7F1FB3CE0D048844209D15E
:1039C00001214804FFF7E9FB00214FF40030FFF725
:1039D000E4FB2FE0CA48844209D101218804FFF7A3
:1039E000DCFB00214FF48020FFF7D7FB22E0C54825
:1039F000844208D101214020FFF7BEFB0021402076
:103A0000FFF7BAFB16E0C048844208D101218020AC
:103A1000FFF7B2FB00218020FFF7AEFB0AE0BB48B6
:103A2000844207D101218015FFF7A6FB0021A015D4
:103A3000FFF7A2FB10BD00220288A84B98420ED0CF
:103A4000AC4B98420BD0B0F1804F08D0A44B9842B9
:103A500005D0A44B984202D0A34B984204D14FF614
:103A60008F731A404B881A43A04B984207D0A04B43
:103A7000984204D04FF6FF431A400B891A43028044
:103A80004B68C3620B880385944B984202D0994BD4
:103A9000984201D18B7A03860123838270474FF0CD
:103AA000FF314160002101800181418081727047B6
:103AB0000185828270470A46002101884FF68F7384
:103AC000194011430180704741627047C1627047DD
:103AD0000146486A70470146088D704721B1028847
:103AE00042F00202028004E002884FF6FD731A40A1
:103AF0000280704721B1028842F00402028004E093
:103B000002884FF6FB731A400280704721B1028889
:103B100042F08002028004E002884FF67F731A4070
:103B20000280704702884FF6F7731A4002800288BD
:103B30000A430280704702884FF6FF431A40028012
:103B400002880A430280704721B1028842F00102D4
:103B5000028004E002884FF6FE731A40028070472C
:103B600070B5002400220023058C4FF6FE76354008
:103B70000584028C8388048B4FF68F752C40B51E0C
:103B80002C400D882C43751E2A408D892A434D8870
:103B90002A43524DA84202D0564DA84213D14FF6A7
:103BA000F7752A40CD892A434FF6FB752A408D8848
:103BB0002A434FF6FF652B404FF6FF552B400D8AE9
:103BC0002B434D8A2B43838004838D684563028495
:103BD00070BD70B5002400220023058C4FF6EF76EF
:103BE00035400584028C8388048B48F6FF752C4091
:103BF0004FF6FF452C400D884FF6FF7606EA052567
:103C00002C434FF6DF752A408D8906EA05152A43B5
:103C10004D8806EA05152A43304DA84202D0354D9D
:103C2000A8421DD14FF67F752A40CD894FF6FF7609
:103C300006EA05152A434FF6BF752A408D8806EA25
:103C400005152A434FF6FF352B404FF2FF752B40E9
:103C50000D8A06EA85052B434D8A06EA85052B4326
:103C6000838004838D688563028470BD70B50024F1
:103C700000220023058C4FF6FF6635400584028C38
:103C80008388848B4FF68F752C404FF6FC752C4043
:103C90000D882C434FF6FF552A408D894FF6FF764D
:103CA00006EA05252A434D8806EA05252A430B4DD9
:103CB000A84202D00F4DA84238D14FF2FF752A40DA
:103CC000CD894FF6FF7606EA05252A434FF6FF35E4
:103CD0002A408D8806EA05252A4319E000000140A4
:103CE0000004004000080040000C004000100040AC
:103CF0000014004000040140004001400044014025
:103D00000048014000180040001C00400020004016
:103D10004EF6FF752B404DF6FF752B400D8A06EAD7
:103D200005152B434D8A06EA05152B4383808483B2
:103D30008D68C563028470BD70B500220023002425
:103D4000058C4EF6FF7635400584038C8488828B83
:103D500048F6FF752A404FF6FF452A400D884FF67A
:103D6000FF7606EA05252A434DF6FF752B408D891F
:103D700006EA05352B434D8806EA05352B43FE4DF3
:103D8000A84202D0FD4DA84208D14BF6FF752C4049
:103D90000D8A4FF6FF7606EA85152C4384808283D0
:103DA0008D680564038470BD00210180418081809D
:103DB00081608181C18101824182704770B5034673
:103DC000002000241846183001258D40ACB21D8C0F
:103DD000A5431D8409B108290AD100EB61000568DB
:103DE0004FF68F76354005600568154305600FE096
:103DF0000D1FC5F34E052844056848F6FF7635408B
:103E0000056005684FF6FF7606EA02263543056031
:103E100070BD4163704781637047C163704701643F
:103E200070470A460021018B4FF68F7319401143EA
:103E3000018370470A460021018B48F6FF73194041
:103E40004FF6FF7303EA02231943018370470A46C2
:103E50000021818B4FF68F73194011438183704786
:103E60000A460021818B48F6FF7319404FF6FF7315
:103E700003EA02231943818370470A460021018B1C
:103E80004FF6F77319401143018370470A4600212A
:103E9000018B4FF2FF7319404FF6FF7303EA0223C1
:103EA0001943018370470A460021818B4FF6F7734F
:103EB00019401143818370470A460021818B4FF2DC
:103EC000FF7319404FF6FF7303EA022319438183FE
:103ED00070470A460021018B4FF6FB7319401143CE
:103EE000018370470A460021018B4FF6FF331940CA
:103EF0004FF6FF7303EA02231943018370470A4612
:103F00000021818B4FF6FB73194011438183704769
:103F10000A460021818B4FF6FF3319404FF6FF739D
:103F200003EA02231943818370470A460021018B6B
:103F30004FF67F7319401143018370470A460021F1
:103F4000018BC1F30E014FF6FF7303EA02231943FD
:103F5000018370470A460021818B4FF67F73194019
:103F60001143818370470A460021818BC1F30E0102
:103F70004FF6FF7303EA02231943818370470A4611
:103F80000021018C4FF6FD731940114301847047E5
:103F90000A460021018C4FF6F77319401143018442
:103FA00070470A460021018C4FF6DF7319404FF627
:103FB000FF7303EA02131943018470470A46002184
:103FC000018C4FF67F7319404FF6FF7303EA02131B
:103FD0001943018470470A460021018C4FF6FF53B4
:103FE00019404FF6FF7303EA022319430184704717
:103FF0000A460021018C4FF2FF7319404FF6FF7300
:1040000003EA02231943018470470A460021018C08
:104010004DF6FF7319404FF6FF7303EA023319435D
:104020000184704730B5002301248C40A3B2048C76
:104030009C430484048C02FA01F5ADB22C43048441
:1040400030BD30B5002304248C40A3B2048C9C43C3
:104050000484048C02FA01F5ADB22C43048430BD13
:10406000828B4FF2FF331A408283828B4FF6FF73AD
:1040700003EA01231A4382837047F0B50C461546C4
:10408000002100220026078C4EF6FF7C07EA0C0771
:104090000784818B028C4FF6FF7707EA043640F6DF
:1040A000FF4739404FF6FF7707EA052739434FF6B8
:1040B000FF7707EA0337394345F6FF773A4046F47E
:1040C00080573A4381830284F0BD828B4FF6F373AD
:1040D0001A408283828B0A4382837047F0B50C4674
:1040E0001546002100220026078C4FF6FF6C07EAD8
:1040F0000C070784818B028C4FF6FF7707EA0426B2
:104100004FF60C7739404FF6FF7707EA03172F4336
:1041100039434FF2FF573A4046F480773A43818360
:104120000284F0BD028B4FF2FF331A400283028BF0
:104130004FF6FF7303EA01231A4302837047F0B579
:104140000C461546002100220026078C4FF6EF7C16
:1041500007EA0C070784018B028C4FF6FF7707EA0A
:10416000041640F6FF4739404FF6FF7707EA03375A
:1041700039434FF6FF7703E000000140000401409F
:1041800007EA052739434FF65F773A4046F01007B4
:104190003A4301830284F0BD028B4FF6F3731A4059
:1041A0000283028B0A4302837047F0B50C46154622
:1041B00000210022068C4FF6FE773E400684018BDC
:1041C000028C4FF60C7631407E1C06EA03162E4315
:1041D00031434FF6F576324044F001063243018315
:1041E0000284F0BD70B505460C46208850B923897D
:1041F000A28861882846FFF7D8FFE1882846FFF7A4
:10420000CBFF25E0208804280AD12389A288618871
:104210002846FFF794FFE1882846FFF783FF17E061
:10422000208808280AD12389A28861882846FFF7B8
:1042300055FFE1882846FFF748FF09E02389A28857
:1042400061882846FFF719FFE1882846FFF708FF35
:1042500070BD002101804180012181800021C18049
:10426000018170472DE9F04105460C4600260127E3
:10427000608808B9022600E00026A088012801D144
:10428000022700E001272088A0B92389A28861883D
:104290002846FFF78AFFE1882846FFF77DFF23893C
:1042A0003A4631462846FFF74AFFE1882846FFF79D
:1042B00039FF13E02389A28861882846FFF73FFF72
:1042C000E1882846FFF72EFF23893A4631462846E3
:1042D000FFF76BFFE1882846FFF75EFFBDE8F0813E
:1042E0000146486B70470146886B70470146C86BB2
:1042F00070470146086C70470A884B881A438B88C0
:104300001A43CB881A430B891A434B891A438B896A
:104310001A43A0F844207047002101804180818029
:10432000C180018141818181704731B1B0F8442061
:1043300042F40042A0F8442005E0B0F84420C2F363
:104340000E02A0F84420704721B1828842F0040296
:10435000828004E082884FF6FB731A4082807047A7
:1043600021B1828842F00102828004E082884FF607
:10437000FE731A40828070471AB183890B43838190
:1043800002E083898B4383817047818270470246B4
:104390000020138A0B400BB1012000E00020704781
:1043A000CA430282704730B5024600200023002431
:1043B000158A05EA0103958905EA010413B10CB1D8
:1043C000012000E0002030BDCA430282704741EA6C
:1043D0000203A0F8483070471AB183890B438381E8
:1043E00002E083898B438381704721B1828842F048
:1043F0000802828004E082884FF6F7731A408280B8
:10440000704701894FF6F8721140018170470A46E2
:10441000002101894FF68F731940114301817047C4
:1044200030B504460D4629462046FFF7F0FF2089A7
:1044300040F00700208130BD2DE9F04104460D46D3
:1044400016461F46602D06D13B46012231462046C6
:10445000FFF775FE05E03B46012231462046FFF797
:10446000A4FE29462046FFF7D2FF208940F007002E
:104470002081BDE8F08130B50C4600210189C9B228
:104480004FF6FF7505EA03251543254329430181AE
:1044900030BD2DE9F04105460E46174698460024EA
:1044A00043463A4631462846FFF7E5FF2C894FF64A
:1044B000F870044044F007044FF68F70044044F055
:1044C00070042C81BDE8F081F0B504460D46164617
:1044D0001F463B46324629462046FFF7CCFF20893F
:1044E00040F480402081F0BD82884FF68F731A40DF
:1044F000828082880A438280704702894FF6F8736F
:104500001A40028102890A430281704702894FF6EC
:104510007F731A40028102890A4302817047F0B515
:104520000C4615461E460021002200230189028BFD
:10453000038C4FF6F877394021434FF6FC473A4059
:1045400040F201173A434FF6DD773B404FF6FF77D5
:1045500007EA06172F433B43018102830384F0BD22
:1045600021B1828842F08002828004E082884FF686
:104570007F731A4082807047A0F8501070477047D0
:104580001CB50C46064B7B4469460090204600F063
:1045900024FC04460020694600F032FC20461CBD85
:1045A000770800000FB41CB5084B06AA7B44694687
:1045B0000090059800F011FC04460020694600F0C8
:1045C0001FFC20461CBC5DF814FB000051080000D5
:1045D0002DE9F0410646002410687529314616A5DC
:1045E00010D000F03FF9002802DA404213A507E09E
:1045F00031688A0701D512A502E0490704D511A543
:10460000012401E000F037F900210A2206F1240715
:1046100009E0B0FBF2FCB0FBF2F302FB1C0030300F
:1046200078541846491C0028F3D123462A463046C0
:10463000BDE8F04100F051B9000000002D0000007D
:104640002B000000200000002DE9F05F89460446A1
:104650004FF0000ADFF874B1FB44C0F820A02046F8
:10466000E1688847002874D0252806D0D4E90121C4
:104670009047206A401C2062F1E700265F462046F2
:10468000E16888472028054607DB312D05D27819D7
:1046900010F8200C08B10643F1E7B00701D526F069
:1046A0000406C4F81CA00027C4F818A02A2D09D0BD
:1046B000284601F0DAFB38B304EB8708303DC8F830
:1046C000185019E059F8041B204604EB8702916149
:1046D000E1688847012F054618D1E069002820DAF3
:1046E00026F020061DE0D8F8180000EB800005EB4E
:1046F00040003038C8F818002046E1688847054671
:1047000001F0B3FB0028EED1012F0AD02E2D08D1E5
:104710002046E16888477F1C0546022F46F02006A8
:10472000C4DBA069002803DA404246F00106A0611C
:10473000F00701D026F010066C2D0BD0682D09D0A3
:104740004C2D39D06A2D35D0742D35D07A2D33D0FB
:1047500016E038E0E1682F4620468847B842054613
:1047600009D16C2F26D04FF48060E16806432046C3
:104770008847054604E06C2F1AD04FF4807006433A
:104780000DB3A5F14100192802D8203546F4006682
:104790004A462946204626604E46FBF72FFD80B14B
:1047A00001280BD0F61D26F0070000F1080956E796
:1047B0004020E4E78020D8E70020D6E706F104098E
:1047C0004DE7284652E7206ABDE8F09F321F0000FF
:1047D00010B5431C02E010F8011B71B18107FAD13A
:1047E0004FF0013202C88C1A8C4314EAC211F9D07E
:1047F000C01A0A0603D0C01E10BDC01A10BD0A049C
:1048000001D0801E10BD0902FCD0401E10BD7047B3
:1048100070477047704770B5044685690068C106E7
:1048200001D5302600E02026C00707D070BDD4E9AE
:10483000012130469047206A401C20626D1EF6D54B
:1048400070BD70B5044685690078C00707D170BD9A
:10485000D4E9012120209047206A401C20626D1E6F
:10486000F6D570BD09684A0501D540B27047C90543
:10487000FCD500B2704709684A0501D5C0B270473F
:10488000C905FCD580B2704770B50C460546012AB3
:1048900005D02878800600D5EA69002302E00123CC
:1048A00005E05B1C934202D2E05C0028F9D1A869C4
:1048B000E618C01AA861286A184428622846FFF73B
:1048C000AAFF04E0D5E9012114F8010B9047B44296
:1048D000F8D32846FFF7B5FF70BD2DE9F0470D4628
:1048E00099469246044600F124080168880604D5DA
:1048F000E06921F01001216000E00120A84201DD03
:10490000471B00E00027A1697A1902EB0900081A89
:10491000A0612078C00602D42046FFF77CFF002665
:1049200008E0D4E901211AF806009047206A401CEB
:10493000761C20624E45F4DB2078C0060AD520465E
:10494000FFF769FF06E0D4E9012130209047206A93
:10495000401C2062381EA7F10107F4DC07E0D4E90F
:10496000012118F805009047206A401C2062281E8B
:10497000A5F10105F3DC2046FFF763FF2078000670
:1049800002D50220BDE8F0870120FBE7116802682C
:10499000006A530501D508700AE0D30501D50880E7
:1049A00006E0130603D5C217C1E9000200E0086063
:1049B0000120704770472DE9FF4F0C461E464FF00F
:1049C000FF378BB0D2E90001DDF860800A908A469B
:1049D000C1F30A5505B93D46002108464FF00000D5
:1049E000BAF1000F00F4400005DA00EB80004FF44C
:1049F000400101EA50004FEA9059B9F1010F00DD82
:104A0000B9460A9850EA4A000ED044F61050A5F272
:104A1000FF3545432F14B8F1000F1ED07542291EF3
:104A20001EDDC9F100021CE0B8F1010F4FF00000DB
:104A300001D0302103E0F24305E02154401CB04294
:104A4000FBDB30460022002121540B99C1F808807D
:104A5000C1E900200FB0BDE8F08FBD1B6D1CDEE783
:104A60004A4600DA694206A800F022FD06AB93E848
:104A7000070003AB83E8070050460A9900F022FEC6
:104A80008DE80700A0F500501F3800900398002D16
:104A900009DD42F21F014A46084403A90390684613
:104AA00001F081F808E0A0F500504A461F3803A93C
:104AB0000390684601F08BF88DE807000004000CB5
:104AC00003D04FF0FF30410800E01046B8F1000F6E
:104AD00003D00022009215461EE0751E05D400F09A
:104AE000B7FA303262556D1EF9D5B346012208433C
:104AF00002D000227F1C04E02078302801D100225F
:104B00007F1E002A099786D01DE0112D07DA00F0DC
:104B10009FFA303262556D1C50EA0102F5D108430C
:104B200002D00098C8B10EE00021681E05E0235CA9
:104B3000625C63542254401E491C8142F7DBAB4641
:104B4000A81B401E0990002004F80B000B98099A3E
:104B5000C0F80880C0E9002B7CE711264FF0000860
:104B600059E72DE9F04F88460446D21D22F007018F
:104B700091B0D1E90001CDE90A0101F05EF90246E8
:104B80000B98C00F01D02D2007E02068810701D5C8
:104B90002B2002E0202101EAC000032A099001D065
:104BA000072A05DB03464146204600F015FC0BE1D1
:104BB0002078800601D5E06900E00620B8F1650F95
:104BC000814606D0B8F1660F18D0B8F1670F70D1E2
:104BD00031E00020B9F1110F009001DB112301E059
:104BE00009F101030AAA01A90CA8FFF7E4FEDDE917
:104BF0000C70002609F10105834647E001204B4671
:104C000000904FF000470AAA01A90CA8FFF7D3FEB5
:104C1000DDE90DB00C995D46002610B909F10100DF
:104C20000D18B9EB050003D4C0F1FF3609F10105F9
:104C3000A5EB09002BE0B9F1010F01DA4FF00109F2
:104C40000020B9F1110F0090484601DD112300E06A
:104C500003460AAA01A90CA8FFF7ADFEDDE90C7016
:104C60004D4600268346207800070AD4AB4500DA7B
:104C70005D4601A8012D04DD411911F8011C302900
:104C800007D04F4502DA17F1040F04DA01208246FB
:104C90000FE06D1EEEE7002F02DCED1B3E4403E04B
:104CA000781CA84200DD7D1CB81B00F1010A4FF002
:104CB00000472078000703D4AA4501DB4FF0FF3AF4
:104CC0000021B7F1004F0DF143088DF8431024D0B7
:104CD00002202B23002F01DA7F422D230A21021EFE
:104CE000A0F1010000DC5FB197FBF1FC97FBF1F252
:104CF00001FB1C7C17460CF1300C08F801CDEEE7E7
:104D0000A8F1010003702188090501D5452100E0C3
:104D10006521A0F1010800F8011C09980FA9A1EB79
:104D20000807FF1D00B10120411901EBEA70A169DC
:104D30003844081A401EA0612078C00602D42046DC
:104D4000FFF769FD099828B1D4E901219047206A4D
:104D5000401C20622078C00622D52046FFF75BFD6C
:104D60001EE0002E04DBB34502DD01A8805D00E0FB
:104D70003020D4E901219047206A401C2062761C33
:104D8000AAF101005FEA000A0AD100F05DF9C068EB
:104D90000168405CD4E901219047206A401C2062F0
:104DA000281EA5F10105DCDC07E0D4E9012118F893
:104DB000010B9047206A401C2062381EA7F10107B2
:104DC000F3DC2046FFF73DFD032011B043E6000071
:104DD00001694A1C02610878704700B58FB0CDE9BF
:104DE00001310021059105497944CDE903101146AF
:104DF0006846FFF729FC0FB000BD0000E5FFFFFF8C
:104E00000A6802F8010B0A60704700002DE9FF5F95
:104E100015468A460446DFF8AC80F8440027D8E9F6
:104E200000103E46CDE9001010E03AF816106A4630
:104E300002A800F0ABFB411C07D02178890603D5FE
:104E4000E269391891420DD80744761C2078800613
:104E500002D5E069B84205DDAE42E6DB3AF816005D
:104E60000028E2D1A069C01BA0612046FFF7D3FC57
:104E7000D8E90010CDE90010002017E03AF818102A
:104E80006A4602A800F082FBB0F1FF3F81460BD0DA
:104E900000250DF1080B05E0D4E901211BF8050000
:104EA00090476D1C4D45F7D308F10100B042804694
:104EB000E4DB206A384420622046FFF7C2FCBDE8EC
:104EC000FF9F0000821700002DE9F0418046D21DAF
:104ED00022F007020025D2E90002F52915A614D018
:104EE000011E72F1000106DA0023D0EB030063EB30
:104EF000020211A608E0D8F800108B0701D50FA612
:104F000002E0490701D50EA601251146002408F14B
:104F1000240704E000F09CF830323A55641C50EA53
:104F20000102F7D12B46324621464046BDE8F0410A
:104F3000FFF7D3BC000000002D0000002B00000094
:104F40002000000030B4002100F1240408E002F049
:104F50000705D208303542EA4372DB086554491C24
:104F600052EA0305F3D10468002310A2250708D5EF
:104F700004F020040C4304D0C46901230CA2641E75
:104F8000C46130BCFFF7A9BC10B5044621461068C7
:104F9000FFF771FC02462046BDE810400023D1E730
:104FA000D21D22F00701D1E90023CBE70000000069
:104FB00030000000F0B40D460188090502D5214CEF
:104FC0007C4402E01F4C7C440E34002100F1240696
:104FD00008E002F00F071209E75D42EA03721B09BD
:104FE0007754491C52EA0307F3D1027800231207D1
:104FF00004D5702D06D009B1022311342246F0BC2D
:10500000FFF76BBC01231034F8E770B504460D467A
:1050100021461068FFF72FFC024629462046BDE8CE
:1050200070400023C6E7D21D22F00703D3E9002316
:10503000C0E70368126843F0200303600823C361DC
:105040000023B7E7E4150000004870473806002049
:1050500030B5B0F10A024FEA900E71F100034EEA4A
:10506000817EB0EB0E0061EB91014FEA101E4EEA1B
:10507000017E10EB0E0041EB11114FEA102E4EEAAB
:10508000016E10EB0E0041EB11214FEA104E4EEA7B
:10509000014E10EB0E0041EB1141401841F10001AF
:1050A0004FEAD00040EA41704FEAD10110EB800591
:1050B0004FEA810444EA907444EB01046D1944EB17
:1050C0000404521BA3414FF0000348BF0A3200D52D
:1050D00030BD401C41F1000130BD00002DE9F04F12
:1050E00004460D46D21D22F0070089B0D0E9009297
:1050F00048461746394600F0A0FE0246F80F01D098
:105100002D2307E02068810701D52B2302E0202111
:1051100001EAC0038DF820300BB1012000E000202F
:10512000032A824601D0072A04DB2946204600F0E4
:1051300053F93DE12078800601D40D2500E0E569B2
:10514000C7F30A560D2D49DA00214FEA175B0846CE
:105150004FF00000002F00F4400007DA00EB800061
:105160004FF4400100EBD07001EA60008115012985
:1051700001DD4FF0FF3100224FEA850CBCF1180F22
:1051800006D31346ACF118004FF08052C24003E042
:105190004FF4801323FA0CF30CF10C0CBCF1200F2C
:1051A00004D3ACF1200C09FA0CF001E007FA0CF082
:1051B00000294FF0004801DD18B90FE00ED140453D
:1051C0000CD319EB02095F4121B9404502D19F433D
:1051D00029EA0209BBEB175F00D0761C2088000586
:1051E00002D57B48784402E079487844193808AA07
:1051F000302302F80A30037C0AF10101002E0AF183
:10520000020A53546A4602DC4FF0300101E04FF0CD
:1052100031014FF001088DF8001002D0A6F2FF36E0
:1052200003E059EA470100D06A4E002D02DC2178E4
:10523000090704D54FF002082E218DF80110C4464D
:1052400000210BE0C7F303433F01C35C491C6D1E03
:1052500002F80830052908F1010801DA002DF1DC17
:1052600000210CE000EB1973491C1B786D1E082906
:1052700002F808304FEA091908F1010801DA002D97
:10528000F0DC2178890602D514E0A8F10108E04598
:1052900005DD02EB080111F8011C3029F5D0B8F149
:1052A000000F07DD02EB080111F8011C2E2901D1C6
:1052B000A8F10108002D05DD3E2102F808106D1E41
:1052C00008F10108407C002E02F8080008F10108EE
:1052D00004DA2D20764202F8080002E02B2002F8C2
:1052E00008000A214FF47A70864208F101080BDBAE
:1052F00096FBF0F3303302F8083096FBF0F308F138
:10530000010800FB136601E0642E0CDB642096FBB1
:10531000F0F3303302F8083096FBF0F308F101089F
:1053200000FB136601E00A2E06DB96FBF1F030303D
:1053300002F8080008F1010896FBF1F001FB10608B
:10534000303002F80800A16908F1010808EB0502F5
:1053500002EB0A00081AA0612078C00602D4204699
:10536000FFF759FA216A08AE01EB0A00206204E057
:10537000D4E9012116F8010B9047BAF1010AF7D2DE
:105380002078C00602D52046FFF745FA6E4609E0B0
:1053900016F8010B3E280FD0D4E901219047206A6E
:1053A000401C2062B8F10108F2D22046FFF749FA0A
:1053B00009B00320BDE8F08F206A2844206203E092
:1053C000D4E90121302090476D1EEBD3F8E70000AF
:1053D000FB13000002FCFFFF2DE9F0411F460446CD
:1053E00003260168072A01F4006004DB08B116A552
:1053F00005E016A503E008B115A500E015A521F00C
:1054000010002060A069C01EA0610FB1401EA06105
:105410002046FFF700FA4FB1D4E901213846904702
:10542000206A401C2062C01C206206E0206AFAE765
:10543000D4E9012115F8010B9047761EF8D22046D9
:10544000FFF7FFF9BDE8F0814E414E006E616E003E
:10545000494E4600696E660010B5436913B1AFF35B
:10546000008001E0FFF710FA012010BD127800F172
:1054700024010A7000224A700122EDE711684FF002
:10548000FF32E9E710B5436913B1AFF3008001E0E3
:10549000FFF7BCFC012010BD128800F124018284BA
:1054A0000022C2840122EDE711684FF0FF32E9E7E4
:1054B0002DE9F047814616468AB0334878440DC836
:1054C0008DE80D0030487844801C03AC0DC884E89A
:1054D0000D0041F69B300844372190FBF1F290FB20
:1054E000F1F5A5F1800501FB12041B3C02D56442D5
:1054F000012000E00020DFF890A080460027FA4459
:10550000AAF1BE0A0DE0E00709D03246684607EB73
:1055100047010AEB810100F05AFB8DE80700641097
:105520007F1C002CEFD1184F7F44AC3F18E0E807F8
:1055300014D007EB04100DF1180A90E80E008AE869
:105540000E00C068F04201D198190890324606A9B1
:1055500003A800F03CFB03AB83E807006D10641C5C
:10556000002DE4D132466946B8F1000F03A802D0FD
:1055700000F019FB01E000F02AFBC9E90001C9F8BD
:1055800008200AB0BDE8F087B411000070B51646D7
:105590000C46054600F044F8036893F80101012821
:1055A00006D0FF2C0FD8185D68B101202C7070BD9B
:1055B000D3F807013246214603F207130344284675
:1055C000BDE8704018474FF0FF3070BD004870478D
:1055D000180600207546FFF7F9FFAE46050069463C
:1055E000534620F00700854618B020B5FCF746FE6C
:1055F000BDE820404FF000064FF000074FF00008D4
:105600004FF0000B21F00701AC46ACE8C009ACE854
:10561000C009ACE8C009ACE8C0098D46704700007D
:1056200010B5FFF711FD001D10BD00BF7908000087
:1056300010B50446AFF300802046BDE81040FAF7ED
:1056400042BE00004FF0013C50F8042B51F8043BDF
:105650009A4221D1A2EB0C03934313EACC1317D146
:1056600050F8042B51F8043B9A4215D1A2EB0C03DD
:10567000934313EACC130BD150F8042B51F8043B9D
:105680009A4209D1A2EB0C03934313EACC13DBD06B
:105690004FF00000704700BFD01A01BAB1FA81F193
:1056A00001F0180122FA01F0CB40C1F12001DBB278
:1056B000C0B2C01A2CFA01F3D11A914311EAC311F6
:1056C000E6D170475FEA400C08BF91F0000F4FEA47
:1056D0008C234FEAC12243EA51514FEA1C5018BFB4
:1056E00000F5F0404FEA300018BF41F000415FEA9A
:1056F0006C5C00F02980BCF1FF3F08BF40F08040A7
:105700007047130C06BF12044FF0100C4FF0000C42
:10571000130E04BF12020CF1080C130F04BF120188
:105720000CF1040C930F04BF92000CF1020CD30F88
:1057300004BF52000CF1010C11464FF00002A0F121
:105740001F00A0EB0C00704711F0004F08BF70471E
:1057500031F000413FF4D5AF0B0C06BF09044FF008
:10576000100C4FF0000C0B0E04BF09020CF1080CDA
:105770000B0F04BF09010CF1040C8B0F04BF89004F
:105780000CF1020CCB0F04BF49000CF1010CCCF161
:105790002003A0EB0C0022FA03F302FA0CF241EA18
:1057A000030100F10100704720F07F4C80EA030004
:1057B00023F07F47ACEB070303F57C5300F0004078
:1057C00003F1FF032DE980494FEA154B09B44FEA75
:1057D000144325EA0B4E24EA03480FF2042606EB95
:1057E000132749083E785FEA320203FB0667C7F5D4
:1057F000000707FB06F64FEA54374FEAD64606F194
:10580000020607FB066CCCF1005C4FEA1C472CEA51
:10581000074C07FB06F40CFB06F504EB15464FEAB4
:10582000961634BF00204FF000404FEAD13706FBF8
:1058300007FC4FEA1C4C0CFB0BF7D21B03FB0CF7CD
:1058400061EB07010CFB0EF7B0EB074072EB174260
:105850000CFB08F734BFA2EB0742B2EB074261EB47
:1058600017414FEA0C444FEA910706FB07FC4FEA49
:105870001C4C0CFB0BF7B0EBC74072EB573203FB31
:105880000CF734BFA2EBC742B2EBC74261EB573112
:105890000CFB0EF7B0EBC70072EB57720CFB08F76E
:1058A00034BFA2EBC702B2EBC70261EB5771039F93
:1058B0004FEA816141EA921104EBCC044FEAD137FF
:1058C0004FEA826206FB07FC42EA90124FEA8060D0
:1058D0004FEA1C4C0CFB0BF7D21B03FB0CF761EBE4
:1058E00007010CFB0EF7B0EB074072EB17420CFB05
:1058F00008F734BFA2EB0742B2EB074261EB174156
:105900004FEA8C554FEA910704EB9C2406FB07FCF9
:105910004FEA1C4C0CFB0BF7B0EBC74072EB573255
:1059200003FB0CF734BFA2EBC742B2EBC74261EBFB
:1059300057310CFB0EF7B0EBC70072EB57720CFB44
:1059400008F734BFA2EBC702B2EBC70261EB577195
:1059500015EB4C254FEA816141EA92114FEA8262D0
:105960004FEAD13742EA901206FB07FC44F10004EB
:105970004FEA80604FEA1C4C0CFB0BF7D21B03FB79
:105980000CF761EB07010CFB0EF7B0EB074072EB75
:1059900017420CFB08F734BFA2EB0742B2EB0742F9
:1059A00061EB174115EB1C154FEA813141EA924139
:1059B0004FEA823242EA90424FEA80304FEA0C7658
:1059C00044F1000448EA03434EEA0B484FF0000E4E
:1059D000B2EB080C71EB030724BF624639464EEB6D
:1059E0000E0E4FF0000B0018524149414BEB0B0BD0
:1059F000B2EB080C71EB03077BF1000B24BF62468E
:105A000039464EEB0E0E4FF0000B00185241494143
:105A10004BEB0B0BB2EB080C71EB03077BF1000BAC
:105A200024BF624639464EEB0E0E51EA020718BFFC
:105A300046F0010616EB0E7655F1000254F1000116
:105A400003D5BDE88901BDE80088BDE88901BDE84E
:105A50000048B619524141EB0101A3F1010370471F
:105A600080807F7E7D7C7B7A79787776767574739B
:105A7000727171706F6E6E6D6C6C6B6A6A6968685A
:105A8000676666656464636362616160605F5F5EF0
:105A90005E5D5D5C5C5B5B5A5A5959585857575666
:105AA00056555555545453535252525151505050CB
:105AB0004F4F4F4E4E4D4D4D4C4C4C4B4B4B4A4A1D
:105AC0004A49494948484847474747464646454561
:105AD000454444444443434343424242424141419A
