:100EEB00013500012E00022F0000C1000243000556
:100EFB00023F0000042300000000022A0000022130
:050F0B0000000145009B
:100E6D00B200A200928275B30975B101D2837F40A1
:060E7D007E9C7D007C005C
:100E83008F538E528D518C50785074FF1204F5ECB1
:060E93004D4E4F70F322EA
:10084400E4F559F558F557F556F55DF55CF55BF5A6
:100854005AF561F560F55FF55EFFFEFDFC75E64A4D
:10086400C2DF75D12230DFFDC2DFAFD97554008FEE
:1008740055AFDA7552008F53AFDB7550008F51E4DA
:10088400F5D1AE50AF51FCFDFBFA7901F8120476B4
:10089400A804A905AA06AB07E553FEE4FCFD2BFB5F
:1008A400EA3EFAED39F9EC38F8EB2555FFEA355410
:1008B400FEED39FDEC38FCE412033DE4FBFA79204B
:1008C400784012011EE4FBFA7980784B1202278FDC
:1008D400598E588D578C56AB59AA58A957A856E427
:1008E400FFFE7D207C40120029C004C005C006C064
:1008F400077F007EA07D8C7C46AB59AA58A957A8D7
:100904005612011ED003D002D001D000120227E4F7
:10091400FBFA797A78C412002D8F5D8E5C8D5B8C26
:100924005A7F247E977D7F7C3FAB5DAA5CA95BA840
:100934005A12011E7B9A7A99794978C012002D8F38
:10094400618E608D5F8C5E1207437B147AAE79D51D
:1009540078C112011E7B9A7AF97987784312002DA7
:100964008F3E8E3D8D3C8C3B8F268E258D248C2393
:010974002260
:080BF5007F007E007DA07C4121
:100BFD008F538E528D518C50853E34853D33853CBF
:100C0D0032853B31AB34AA33A932A8311202C4600C
:100C1D000A40087541007542FF8027E4FFFE7D8084
:100C2D007C3FAB34AA33A932A83112002DAB53AAA5
:100C3D0052A951A8501202C46002500B75410075A3
:100C4D00427F8542B28008E4F541F5428542B2AE5D
:040C5D0041AF42223F
:100E9900C2ACC299C2987599713099FDC299759978
:100EA900713099FDC2997599713099FDC2997599F9
:090EB900713099FDC299D2AC22FE
:100CC000E4FFFE7DC87C42AB3EAA3DA93CA83B1296
:100CD000011E12037BAD07AC06ECFB7A00C3ED945A
:100CE00000FFEC9EFEC2ACC299C29875997430990F
:100CF000FDC2998F993099FDC2998B993099FDC2A7
:0B0D00009975996F3099FDC299D2AC33
:010D0B0022C5
:100EC200C2ACC299C2987599793099FDC299759947
:100ED200793099FDC2997599793099FDC2997599C0
:090EE200793099FDC299D2AC22CD
:100D0C00E4FFFE7DC87C42AB3EAA3DA93CA83B1249
:100D1C00011E12037BAD07AC06ECFB7A00C3ED940D
:100D2C0000FFEC9EFEC2ACC299C2987599653099D1
:100D3C00FDC2998F993099FDC2998B993099FDC25A
:0B0D4C00997599653099FDC299D2ACF1
:010D57002279
:100D5800E4FFFE7DC87C42AB3EAA3DA93CA83B12FD
:100D6800011E12037BAD07AC06ECFB7A00C3ED94C1
:100D780000FFEC9EFEC2ACC299C298759967309983
:100D8800FDC2998F993099FDC2998B993099FDC20E
:0B0D9800997599673099FDC299D2ACA3
:010DA300222D
:100DA400E4FFFE7DC87C42AB3EAA3DA93CA83B12B1
:100DB400011E12037BAD07AC06ECFB7A00C3ED9475
:100DC40000FFEC9EFEC2ACC299C29875996A309934
:100DD400FDC2998F993099FDC2998B993099FDC2C2
:0B0DE4009975996A3099FDC299D2AC54
:010DEF0022E1
:100C610075AE5175B4FF75B2FF75B30F75B1017FE4
:100C7100647E00120E7FC2AFE4F5D7F5AFC2DF7517
:100C8100D40D75D12475D12575D227C2AE758B3D92
:100C9100758D0AC28E758A3D758C0AC28CC2A9C235
:100CA100ABC2AC759850759E86759D12C2807F64EB
:0F0CB100FEFDFC120E83D2BCD2AFD2ACC28322A6
:0A0E37008B088A09890A8C0B8D0CC8
:100E4100C2ACE4FFFEC3EF950CEE950B501BAB0853
:100E5100AA09A90A8F828E83120449F5993099FD56
:0B0E6100C2990FBF00010E80DCD2AC74
:010E6C002263
:080975008E468F478C488D4926
:10097D00E4F54CF54DF54A754B01C3E54B9547E54F
:10098D00466480F8E54A6480985079120844AC4872
:10099D00AD49EC120342120BFD054DE54D700205FC
:1009AD004CB200A200928275B30975B108D2837F53
:1009BD00787E69120E7F120D0C75B30975B108E5BD
:1009CD004D6401454C7009120D0C7F807E388007F7
:1009DD00120D0C7F107E9E7D017C00120E83C28352
:1009ED007F407E0D7D037C00120E837F407E0D7D4A
:1009FD00037C00120E83120D0C054BE54B700205A6
:100A0D004A020987B200A200928275B30975B10836
:100A1D00120E798544B375B1017F807E387D017CDE
:0E0A2D0000120E83120D0CE4F54CF54DC28341
:010A3B002298
:080A3C008E468F478C488D495E
:100A4400E4F54EF54FF54A754B01C3E54B9547E583
:100A5400466480F8E54A6480985067120844AC48BC
:100A6400AD49EC120342120BFD054FE54F70020530
:100A74004E120E6D120DA48544B375B101E54F6499
:100A840001454E7009120DA47F807E388007120D37
:100A9400A47F107E9E7D017C00120E83C2837F4062
:100AA4007E0D7D037C00120E837F407E0D7D037CD2
:100AB40000120E83120DA4054BE54B7002054A0289
:100AC4000A4E120E6D8544B375B1017F807E387D68
:100AD400017C00120E83120DA4E4F54EF54FC2837F
:010AE40022EF
:040DF0008E468F4755
:100DF400C281E4F548F549C3E5499547E546648071
:100E0400F8E5486480985028120844120BF5E4FB76
:100E1400FA7FE87E03120E7F0BBB00010AEB64C865
:100E24004A70EE120D580549E54970CB054880C754
:020E3400D28169
:010E36002299
:10051300D281C280120C61D288D2A87FE87E0312F6
:100523000E7F752F0075300175B30F75B101D2833E
:10053300D2827F207E4E120E7FC2837F207E4E1298
:100543000E7FE5306401452F7013D283C28275B3E9
:100553000F75B1017F207E4EFDFC120E83D2007F0A
:10056300407E0D7D037C00120E8375B30F75B101C0
:10057300D283D2827F207E4E120E7FC2837F207E63
:100583004E120E7FE5306401452F7013D283D28261
:1005930075B30F75B1017F207E4EFDFC120E83D221
:1005A300007F407E0D7D037C00120E837F0A804511
:1005B3007F647E00120E7FE53524FE603F147003D6
:1005C30002067714700302069C1470030206B1241A
:1005D3000470DD7F647E00120E7F1208447F007E6C
:1005E300007DC87C42120BFDE52EB40106120CC03F
:1005F300E4F52E7F647E00120E7F80B47FE07E934D
:100603007D047C00120E83120D0C7D647C007F0A36
:100613007E00120975120D587FC07E277D097C006C
:10062300120E837F787E00120DF0120DA47FC07E20
:10063300277D097C00120E83C2817FC07E277D093E
:100643007C00120E837D147C007F1E7E00120A3C08
:10065300D2817F407E0D7D037C00120E837F407E1E
:100663000D7D037C00120E83120EC2120EC275356D
:10067300050205B37F647E00120E7FD2A8C2837F7A
:10068300E87E03120E7F752F0075300275B309756E
:10069300B101D282D2830205B37F647E00120E7F42
:1006A300C281120844120BF5120CC00205B3D288A2
:1006B300D2A87FE87E03120E7F752F007530017577
:1006C300B30F75B101D283D2827F407E0D7D037C4F
:1006D30000120E83C2837F207E4E120E7FE53064AC
:1006E30001452F7014D283C28275B30F75B1017F98
:1006F300407E0D7D03FC120E83D2007F407E0D7D74
:0C070300037C00120E837535060205B35E
:03000300020F11D8
:100F1100C0E0C0D0E52F7013E53024FE60030470FB
:100F21000AC2A8752F0075300FC283D0D0D0E0322D
:03002300020B715C
:100B7100C0E0C0D0C299C2AC859927C2983098FD17
:100B8100859928C2983098FD859929C298E52764EE
:100B910041600BE52864416005E529B441037535E1
:100BA10001E5276451600BE52864516005E529B42E
:100BB1005103753502E52724BD601D14601F24F320
:100BC100601124FD602424DC60182437701F753502
:100BD10001801A753502801575350380107535044D
:100BE100800B7521007522018003752E01D2ACD0D6
:040BF100D0D0E0324E
:100026000203E7E86480F8E933E83360110460F01E
:10003600ED33EC337009E8FCE9FDEAFEEBFF220440
:1000460060DED3EB9FEA9EE99DE8C2E78CF0C2F73B
:1000560095F0400CE8CCF8E9CDF9EACEFAEBCFFB07
:100066001203B285D0F05804700320D5B3E80470AB
:10007600075002B2D50203F192D5EC0460F7E4CC46
:10008600C0E0C398F8603B94186008400DD0E0FBD0
:100096000203C9E4FBFAC9FC8028E830E406E4C997
:1000A600FBE4CAFCE830E305E4C9CACBFCE8540724
:1000B6006010F8C3E913F9EA13FAEB13FBEC13FC2F
:1000C600D8F130F52FC3E49CFCEF9BFFEE9AFEEDD2
:1000D60099FDD0E0FBEF4E4D4C701222DB0302037C
:1000E600EEEC2CFCEF33FFEE33FEED33FDED30E7A7
:1000F600EB0203C9EF2BFFEE3AFEED39FDD0E0FB34
:1001060050130BBB00030203F1ED13FDEE13FEEFDC
:0801160013FFEC13FC0203C906
:10011E00EC4D6011E8497017ED33EC3304600DE4DB
:10012E00FCFFFEFD22E933E8330470F80203E71208
:10013E0003B258046009E4CC248150062850090209
:10014E0003F12840030203EEC0E0EB4A7044B9808D
:10015E0006D0E0FB0203DDEF4E701CBD8008EBFF06
:10016E00EAFEE9FD80EBE98DF0A4FEE5F002020760
:10017E00E9CDF9EAFEEBFFEF89F0A4FCE5F0CE89BC
:10018E00F0A42EFFE435F0CD89F0A42DFEE435F079
:10019E008067EF4E7005BD80D780C3EF8BF0A4ACA7
:1001AE00F0EE8BF0A42CFCE435F0F8EF8AF0A42CE2
:1001BE00E5F038FCE433CB8DF0A42CFCE5F03BF8F5
:1001CE00EE8AF0A42CFCE5F038F8E433CF89F0A4E5
:1001DE002CFCE5F038CF3400CE89F0A42FFFE5F0EB
:1001EE003EFEE433C98DF0A42EFEE5F039CD8AF043
:1001FE00A42FFFE5F03EFEE43DFD33D0E0FB5007BB
:10020E000BBB000F0203F1EC2CFCEF33FFEE33FEC1
:06021E00ED33FD0203C9EF
:100224000203F1EC5D046005E8590470030203E77E
:100234001203B2580460F6EC4860F2EC7004FDFE60
:10024400FF22C860DB2481C85009C39860025006AD
:100254000203EE9850CAF582E9294B4A7005AB8235
:100264000203DD75F0007C1A7880C3EF9BEE9AEDF3
:1002740099400DC3EF9BFFEE9AFEED99FDE842F025
:10028400DC23ACF0D0E0FFD0E0FED0E0FDAB822078
:10029400E7101BEB60BAEC2CFCEF33FFEE33FEED02
:1002A40033FD0203C9E803F830E705C0F075F00038
:1002B400EF2FFFEE33FEED33FD40B830E7C280AAE6
:1002C40074F8CC6480CCC86480C8F58204604FC3E1
:1002D400EB9FF5F0EA9E42F0E99D42F0E89C45F080
:1002E400603C501DE5825FFFE582D313CB5BCBF40A
:1002F4002B5582FB50280ABA002409B90020088033
:100304001DE5825BFBE582D313CF5FCFF4C3132FCC
:100314005582FF50090EBE00050DBD00010CC3EB54
:100324009FF5F0EA9E42F0E99D42F0E89C45F060BA
:0903340007CC4820E701B3EC22DC
:10033D0075F020800E75F010800575F0087D007E3B
:10034D00007F003392D530D5031204C5EC33401035
:10035D00EF33FFEE33FEED33FDEC33FCD5F0ED2244
:0E036D00E5F0247EA2D513CC92E7CDCEFF2280
:10037B00EDD2E7CD33EC3392D524814006E4FFFE7A
:10038B00FDFC22FCE4CFCECDCC24E0501174FF80D9
:10039B00EDC3CC13CCCD13CDCE13CECF13CF047076
:0703AB00F030D5DE0204C5AD
:10070F003E9248DA3ECCCCCD3F2AAAAB4000000047
:10071F003F8000003F9837F03FB504F33FD744FCCC
:10072F003E3172173EB172173F0515913EDE5BD910
:10073F00D2018002C201EDD2E7F8CD33EC33047061
:10074F000BBD800592D50203F10203E740FBD314E2
:10075F0060F2F5F07C3FEE7A00C39496C8948B401C
:10076F00230AC89469C8941A401A0AC89468C8948E
:10077F001F40110AC8945AC89425400805F07A0002
:10078F00CDC2E7CDC0F08C628D638E648F65EA2396
:10079F0023C0E0241FF582E43407F5831204E3122B
:1007AF00002DECC0E0EDC0E0EEC0E0EFC0E01204C1
:1007BF00D3A862A963AA64AB65120029D0E0FBD06D
:1007CF00E0FAD0E0F9D0E0B2E7F81202278C628DA0
:1007DF00638E648F6590070F74031203FCA862A9E0
:1007EF0063AA64AB6512011ED0E0600F242BF58263
:1007FF00E43407F5831204E312002D8C628D638EAF
:10080F00648F65D0E0C3947FFDE49400FC12034233
:10081F007B187A727931783F12011EA862A963AAF8
:10082F0064AB6512002D30010B7BD97A5B79DE78D2
:05083F003E12011E2223
:1003B200E9D2E7C933E833F892D5EDD2E7CD33EC91
:0703C20033FC5002B2D5220A
:1003C900EC30E7100FBF000C0EBE00080DBD000495
:1003D9000BEB6014A2D5EB13FCED92E7FD2274FF41
:1003E900FCFDFEFF22E480F8A2D574FF13FC7D809A
:0303F900E480EFAE
:1003FC00C0E0EFFBEEFAEDF9ECF812011ED0E0F5DF
:10040C00F0EFFBEEFAEDF9ECF81204D3A3A3A3A3DF
:10041C00E8C0E0E9C0E0EAC0E0EBC0E0C0F01201E7
:10042C001E1204E3A3A3A3A312002DD0F0D0E0FB73
:0D043C00D0E0FAD0E0F9D0E0F8D5F0D422FD
:03000000020AE50C
:0C0AE500787FE4F6D8FD758165020B2CCB
:10044900BB010CE58229F582E5833AF583E0225068
:1004590006E92582F8E622BBFE06E92582F8E222B2
:0D046900E58229F582E5833AF583E49322CC
:10047600E88FF0A4CC8BF0A42CFCE98EF0A42CFC25
:100486008AF0EDA42CFCEA8EF0A4CDA8F08BF0A4A3
:100496002DCC3825F0FDE98FF0A42CCD35F0FCEB02
:1004A6008EF0A4FEA9F0EB8FF0A4CFC5F02ECD39C7
:0F04B600FEE43CFCEAA42DCE35F0FDE43CFC2234
:0E04C500C3E49FFFE49EFEE49DFDE49CFC2248
:1004D300E493FC740193FD740293FE740393FF226F
:1004E300E493F8740193F9740293FA740393FB226F
:1004F3007401FF3395E0FEFDFC080808E6CF2FF6F4
:1005030018E6CE3EF618E6CD3DF618E6CC3CF622CC
:100AF100020513E493A3F8E493A34003F68001F203
:100B010008DFF48029E493A3F85407240CC8C33305
:100B1100C4540F4420C8834004F456800146F6DFD4
:100B2100E4800B0102040810204080900EEBE47E6B
:100B3100019360BCA3FF543F30E509541FFEE493C9
:100B4100A360010ECF54C025E060A840B8E493A390
:100B5100FAE493A3F8E493A3C8C582C8CAC583CABB
:100B6100F0A3C8C582C8CAC583CADFE9DEE780BE73
:010F100000E0
:00000001FF
